{
  "_format": "hh-sol-artifact-1",
  "contractName": "SantaWars",
  "sourceName": "contracts/SantaWars.sol",
  "abi": [
    {
      "inputs": [
        {
          "internalType": "string[]",
          "name": "characterNames",
          "type": "string[]"
        },
        {
          "internalType": "string[]",
          "name": "characterImageURIs",
          "type": "string[]"
        },
        {
          "internalType": "uint256[]",
          "name": "characterHp",
          "type": "uint256[]"
        },
        {
          "internalType": "uint256[]",
          "name": "characterAttackDmg",
          "type": "uint256[]"
        },
        {
          "internalType": "uint256[]",
          "name": "characterHealingPwr",
          "type": "uint256[]"
        }
      ],
      "stateMutability": "nonpayable",
      "type": "constructor"
    },
    {
      "anonymous": false,
      "inputs": [
        {
          "indexed": true,
          "internalType": "address",
          "name": "owner",
          "type": "address"
        },
        {
          "indexed": true,
          "internalType": "address",
          "name": "approved",
          "type": "address"
        },
        {
          "indexed": true,
          "internalType": "uint256",
          "name": "tokenId",
          "type": "uint256"
        }
      ],
      "name": "Approval",
      "type": "event"
    },
    {
      "anonymous": false,
      "inputs": [
        {
          "indexed": true,
          "internalType": "address",
          "name": "owner",
          "type": "address"
        },
        {
          "indexed": true,
          "internalType": "address",
          "name": "operator",
          "type": "address"
        },
        {
          "indexed": false,
          "internalType": "bool",
          "name": "approved",
          "type": "bool"
        }
      ],
      "name": "ApprovalForAll",
      "type": "event"
    },
    {
      "anonymous": false,
      "inputs": [
        {
          "indexed": false,
          "internalType": "uint256",
          "name": "newTargetHp",
          "type": "uint256"
        },
        {
          "indexed": false,
          "internalType": "uint256",
          "name": "newPlayerHp",
          "type": "uint256"
        }
      ],
      "name": "AttackComplete",
      "type": "event"
    },
    {
      "anonymous": false,
      "inputs": [
        {
          "indexed": false,
          "internalType": "address",
          "name": "sender",
          "type": "address"
        },
        {
          "indexed": false,
          "internalType": "uint256",
          "name": "tokenId",
          "type": "uint256"
        },
        {
          "indexed": false,
          "internalType": "uint256",
          "name": "characterIndex",
          "type": "uint256"
        }
      ],
      "name": "CharacterNFTMinted",
      "type": "event"
    },
    {
      "anonymous": false,
      "inputs": [
        {
          "indexed": false,
          "internalType": "uint256",
          "name": "newTargetHp",
          "type": "uint256"
        },
        {
          "indexed": false,
          "internalType": "uint256",
          "name": "newPlayerHp",
          "type": "uint256"
        }
      ],
      "name": "HealComplete",
      "type": "event"
    },
    {
      "anonymous": false,
      "inputs": [
        {
          "indexed": true,
          "internalType": "address",
          "name": "from",
          "type": "address"
        },
        {
          "indexed": true,
          "internalType": "address",
          "name": "to",
          "type": "address"
        },
        {
          "indexed": true,
          "internalType": "uint256",
          "name": "tokenId",
          "type": "uint256"
        }
      ],
      "name": "Transfer",
      "type": "event"
    },
    {
      "inputs": [
        {
          "internalType": "address",
          "name": "to",
          "type": "address"
        },
        {
          "internalType": "uint256",
          "name": "tokenId",
          "type": "uint256"
        }
      ],
      "name": "approve",
      "outputs": [],
      "stateMutability": "nonpayable",
      "type": "function"
    },
    {
      "inputs": [
        {
          "internalType": "address",
          "name": "targetAddress",
          "type": "address"
        }
      ],
      "name": "attack",
      "outputs": [],
      "stateMutability": "nonpayable",
      "type": "function"
    },
    {
      "inputs": [
        {
          "internalType": "address",
          "name": "owner",
          "type": "address"
        }
      ],
      "name": "balanceOf",
      "outputs": [
        {
          "internalType": "uint256",
          "name": "",
          "type": "uint256"
        }
      ],
      "stateMutability": "view",
      "type": "function"
    },
    {
      "inputs": [],
      "name": "deadlineTime",
      "outputs": [
        {
          "internalType": "uint256",
          "name": "",
          "type": "uint256"
        }
      ],
      "stateMutability": "view",
      "type": "function"
    },
    {
      "inputs": [],
      "name": "getAllDefaultCharacters",
      "outputs": [
        {
          "components": [
            {
              "internalType": "uint256",
              "name": "characterIndex",
              "type": "uint256"
            },
            {
              "internalType": "string",
              "name": "name",
              "type": "string"
            },
            {
              "internalType": "string",
              "name": "imageURI",
              "type": "string"
            },
            {
              "internalType": "uint256",
              "name": "hp",
              "type": "uint256"
            },
            {
              "internalType": "uint256",
              "name": "maxHp",
              "type": "uint256"
            },
            {
              "internalType": "uint256",
              "name": "attackDamage",
              "type": "uint256"
            },
            {
              "internalType": "uint256",
              "name": "healingPower",
              "type": "uint256"
            }
          ],
          "internalType": "struct SantaWars.CharacterAttributes[]",
          "name": "",
          "type": "tuple[]"
        }
      ],
      "stateMutability": "view",
      "type": "function"
    },
    {
      "inputs": [],
      "name": "getAllPlayers",
      "outputs": [
        {
          "internalType": "address[]",
          "name": "",
          "type": "address[]"
        }
      ],
      "stateMutability": "view",
      "type": "function"
    },
    {
      "inputs": [
        {
          "internalType": "uint256",
          "name": "tokenId",
          "type": "uint256"
        }
      ],
      "name": "getApproved",
      "outputs": [
        {
          "internalType": "address",
          "name": "",
          "type": "address"
        }
      ],
      "stateMutability": "view",
      "type": "function"
    },
    {
      "inputs": [
        {
          "internalType": "address",
          "name": "targetAddress",
          "type": "address"
        }
      ],
      "name": "getNFTOnUser",
      "outputs": [
        {
          "components": [
            {
              "internalType": "uint256",
              "name": "characterIndex",
              "type": "uint256"
            },
            {
              "internalType": "string",
              "name": "name",
              "type": "string"
            },
            {
              "internalType": "string",
              "name": "imageURI",
              "type": "string"
            },
            {
              "internalType": "uint256",
              "name": "hp",
              "type": "uint256"
            },
            {
              "internalType": "uint256",
              "name": "maxHp",
              "type": "uint256"
            },
            {
              "internalType": "uint256",
              "name": "attackDamage",
              "type": "uint256"
            },
            {
              "internalType": "uint256",
              "name": "healingPower",
              "type": "uint256"
            }
          ],
          "internalType": "struct SantaWars.CharacterAttributes",
          "name": "",
          "type": "tuple"
        }
      ],
      "stateMutability": "view",
      "type": "function"
    },
    {
      "inputs": [
        {
          "internalType": "address",
          "name": "targetAddress",
          "type": "address"
        }
      ],
      "name": "heal",
      "outputs": [],
      "stateMutability": "nonpayable",
      "type": "function"
    },
    {
      "inputs": [
        {
          "internalType": "address",
          "name": "owner",
          "type": "address"
        },
        {
          "internalType": "address",
          "name": "operator",
          "type": "address"
        }
      ],
      "name": "isApprovedForAll",
      "outputs": [
        {
          "internalType": "bool",
          "name": "",
          "type": "bool"
        }
      ],
      "stateMutability": "view",
      "type": "function"
    },
    {
      "inputs": [
        {
          "internalType": "uint256",
          "name": "_characterIndex",
          "type": "uint256"
        }
      ],
      "name": "mintCharacterNFT",
      "outputs": [],
      "stateMutability": "nonpayable",
      "type": "function"
    },
    {
      "inputs": [],
      "name": "name",
      "outputs": [
        {
          "internalType": "string",
          "name": "",
          "type": "string"
        }
      ],
      "stateMutability": "view",
      "type": "function"
    },
    {
      "inputs": [
        {
          "internalType": "uint256",
          "name": "",
          "type": "uint256"
        }
      ],
      "name": "nftHolderAttributes",
      "outputs": [
        {
          "internalType": "uint256",
          "name": "characterIndex",
          "type": "uint256"
        },
        {
          "internalType": "string",
          "name": "name",
          "type": "string"
        },
        {
          "internalType": "string",
          "name": "imageURI",
          "type": "string"
        },
        {
          "internalType": "uint256",
          "name": "hp",
          "type": "uint256"
        },
        {
          "internalType": "uint256",
          "name": "maxHp",
          "type": "uint256"
        },
        {
          "internalType": "uint256",
          "name": "attackDamage",
          "type": "uint256"
        },
        {
          "internalType": "uint256",
          "name": "healingPower",
          "type": "uint256"
        }
      ],
      "stateMutability": "view",
      "type": "function"
    },
    {
      "inputs": [
        {
          "internalType": "address",
          "name": "",
          "type": "address"
        }
      ],
      "name": "nftHolders",
      "outputs": [
        {
          "internalType": "uint256",
          "name": "",
          "type": "uint256"
        }
      ],
      "stateMutability": "view",
      "type": "function"
    },
    {
      "inputs": [
        {
          "internalType": "uint256",
          "name": "tokenId",
          "type": "uint256"
        }
      ],
      "name": "ownerOf",
      "outputs": [
        {
          "internalType": "address",
          "name": "",
          "type": "address"
        }
      ],
      "stateMutability": "view",
      "type": "function"
    },
    {
      "inputs": [
        {
          "internalType": "address",
          "name": "from",
          "type": "address"
        },
        {
          "internalType": "address",
          "name": "to",
          "type": "address"
        },
        {
          "internalType": "uint256",
          "name": "tokenId",
          "type": "uint256"
        }
      ],
      "name": "safeTransferFrom",
      "outputs": [],
      "stateMutability": "nonpayable",
      "type": "function"
    },
    {
      "inputs": [
        {
          "internalType": "address",
          "name": "from",
          "type": "address"
        },
        {
          "internalType": "address",
          "name": "to",
          "type": "address"
        },
        {
          "internalType": "uint256",
          "name": "tokenId",
          "type": "uint256"
        },
        {
          "internalType": "bytes",
          "name": "_data",
          "type": "bytes"
        }
      ],
      "name": "safeTransferFrom",
      "outputs": [],
      "stateMutability": "nonpayable",
      "type": "function"
    },
    {
      "inputs": [
        {
          "internalType": "address",
          "name": "operator",
          "type": "address"
        },
        {
          "internalType": "bool",
          "name": "approved",
          "type": "bool"
        }
      ],
      "name": "setApprovalForAll",
      "outputs": [],
      "stateMutability": "nonpayable",
      "type": "function"
    },
    {
      "inputs": [
        {
          "internalType": "bytes4",
          "name": "interfaceId",
          "type": "bytes4"
        }
      ],
      "name": "supportsInterface",
      "outputs": [
        {
          "internalType": "bool",
          "name": "",
          "type": "bool"
        }
      ],
      "stateMutability": "view",
      "type": "function"
    },
    {
      "inputs": [],
      "name": "symbol",
      "outputs": [
        {
          "internalType": "string",
          "name": "",
          "type": "string"
        }
      ],
      "stateMutability": "view",
      "type": "function"
    },
    {
      "inputs": [
        {
          "internalType": "uint256",
          "name": "_tokenId",
          "type": "uint256"
        }
      ],
      "name": "tokenURI",
      "outputs": [
        {
          "internalType": "string",
          "name": "",
          "type": "string"
        }
      ],
      "stateMutability": "view",
      "type": "function"
    },
    {
      "inputs": [],
      "name": "totalNFTHolders",
      "outputs": [
        {
          "internalType": "uint256",
          "name": "",
          "type": "uint256"
        }
      ],
      "stateMutability": "view",
      "type": "function"
    },
    {
      "inputs": [
        {
          "internalType": "address",
          "name": "from",
          "type": "address"
        },
        {
          "internalType": "address",
          "name": "to",
          "type": "address"
        },
        {
          "internalType": "uint256",
          "name": "tokenId",
          "type": "uint256"
        }
      ],
      "name": "transferFrom",
      "outputs": [],
      "stateMutability": "nonpayable",
      "type": "function"
    }
  ],
  "bytecode": "0x60806040523480156200001157600080fd5b5060405162005bd238038062005bd28339818101604052810190620000379190620008d4565b6040518060400160405280600c81526020017f4368726973746d617365727300000000000000000000000000000000000000008152506040518060400160405280600481526020017f43524d53000000000000000000000000000000000000000000000000000000008152508160009080519060200190620000bb92919062000667565b508060019080519060200190620000d492919062000667565b50505060005b85518110156200054e5760086040518060e0016040528083815260200188848151811062000131577f4e487b7100000000000000000000000000000000000000000000000000000000600052603260045260246000fd5b6020026020010151815260200187848151811062000178577f4e487b7100000000000000000000000000000000000000000000000000000000600052603260045260246000fd5b60200260200101518152602001868481518110620001bf577f4e487b7100000000000000000000000000000000000000000000000000000000600052603260045260246000fd5b6020026020010151815260200186848151811062000206577f4e487b7100000000000000000000000000000000000000000000000000000000600052603260045260246000fd5b602002602001015181526020018584815181106200024d577f4e487b7100000000000000000000000000000000000000000000000000000000600052603260045260246000fd5b6020026020010151815260200184848151811062000294577f4e487b7100000000000000000000000000000000000000000000000000000000600052603260045260246000fd5b60200260200101518152509080600181540180825580915050600190039060005260206000209060070201600090919091909150600082015181600001556020820151816001019080519060200190620002f092919062000667565b5060408201518160020190805190602001906200030f92919062000667565b50606082015181600301556080820151816004015560a0820151816005015560c08201518160060155505060006008828154811062000377577f4e487b7100000000000000000000000000000000000000000000000000000000600052603260045260246000fd5b90600052602060002090600702016040518060e001604052908160008201548152602001600182018054620003ac9062000c05565b80601f0160208091040260200160405190810160405280929190818152602001828054620003da9062000c05565b80156200042b5780601f10620003ff576101008083540402835291602001916200042b565b820191906000526020600020905b8154815290600101906020018083116200040d57829003601f168201915b50505050508152602001600282018054620004469062000c05565b80601f0160208091040260200160405190810160405280929190818152602001828054620004749062000c05565b8015620004c55780601f106200049957610100808354040283529160200191620004c5565b820191906000526020600020905b815481529060010190602001808311620004a757829003601f168201915b5050505050815260200160038201548152602001600482015481526020016005820154815260200160068201548152505090506200053660405180606001604052806025815260200162005bad602591398260200151836060015184604001516200057c60201b620021a91760201c565b5060018162000546919062000b68565b9050620000da565b506361c75c206007819055506200057160066200062860201b6200224b1760201c565b505050505062000cf3565b620006228484848460405160240162000599949392919062000a25565b6040516020818303038152906040527f8d142cdd000000000000000000000000000000000000000000000000000000007bffffffffffffffffffffffffffffffffffffffffffffffffffffffff19166020820180517bffffffffffffffffffffffffffffffffffffffffffffffffffffffff83818316178352505050506200063e60201b60201c565b50505050565b6001816000016000828254019250508190555050565b60008151905060006a636f6e736f6c652e6c6f679050602083016000808483855afa5050505050565b828054620006759062000c05565b90600052602060002090601f016020900481019282620006995760008555620006e5565b82601f10620006b457805160ff1916838001178555620006e5565b82800160010185558215620006e5579182015b82811115620006e4578251825591602001919060010190620006c7565b5b509050620006f49190620006f8565b5090565b5b8082111562000713576000816000905550600101620006f9565b5090565b60006200072e620007288462000abb565b62000a87565b9050808382526020820190508260005b8581101562000772578151850162000757888262000890565b8452602084019350602083019250506001810190506200073e565b5050509392505050565b6000620007936200078d8462000aea565b62000a87565b90508083825260208201905082856020860282011115620007b357600080fd5b60005b85811015620007e75781620007cc8882620008bd565b845260208401935060208301925050600181019050620007b6565b5050509392505050565b600062000808620008028462000b19565b62000a87565b9050828152602081018484840111156200082157600080fd5b6200082e84828562000bcf565b509392505050565b600082601f8301126200084857600080fd5b81516200085a84826020860162000717565b91505092915050565b600082601f8301126200087557600080fd5b8151620008878482602086016200077c565b91505092915050565b600082601f830112620008a257600080fd5b8151620008b4848260208601620007f1565b91505092915050565b600081519050620008ce8162000cd9565b92915050565b600080600080600060a08688031215620008ed57600080fd5b600086015167ffffffffffffffff8111156200090857600080fd5b620009168882890162000836565b955050602086015167ffffffffffffffff8111156200093457600080fd5b620009428882890162000836565b945050604086015167ffffffffffffffff8111156200096057600080fd5b6200096e8882890162000863565b935050606086015167ffffffffffffffff8111156200098c57600080fd5b6200099a8882890162000863565b925050608086015167ffffffffffffffff811115620009b857600080fd5b620009c68882890162000863565b9150509295509295909350565b6000620009e08262000b4c565b620009ec818562000b57565b9350620009fe81856020860162000bcf565b62000a098162000cc8565b840191505092915050565b62000a1f8162000bc5565b82525050565b6000608082019050818103600083015262000a418187620009d3565b9050818103602083015262000a578186620009d3565b905062000a68604083018562000a14565b818103606083015262000a7c8184620009d3565b905095945050505050565b6000604051905081810181811067ffffffffffffffff8211171562000ab15762000ab062000c99565b5b8060405250919050565b600067ffffffffffffffff82111562000ad95762000ad862000c99565b5b602082029050602081019050919050565b600067ffffffffffffffff82111562000b085762000b0762000c99565b5b602082029050602081019050919050565b600067ffffffffffffffff82111562000b375762000b3662000c99565b5b601f19601f8301169050602081019050919050565b600081519050919050565b600082825260208201905092915050565b600062000b758262000bc5565b915062000b828362000bc5565b9250827fffffffffffffffffffffffffffffffffffffffffffffffffffffffffffffffff0382111562000bba5762000bb962000c3b565b5b828201905092915050565b6000819050919050565b60005b8381101562000bef57808201518184015260208101905062000bd2565b8381111562000bff576000848401525b50505050565b6000600282049050600182168062000c1e57607f821691505b6020821081141562000c355762000c3462000c6a565b5b50919050565b7f4e487b7100000000000000000000000000000000000000000000000000000000600052601160045260246000fd5b7f4e487b7100000000000000000000000000000000000000000000000000000000600052602260045260246000fd5b7f4e487b7100000000000000000000000000000000000000000000000000000000600052604160045260246000fd5b6000601f19601f8301169050919050565b62000ce48162000bc5565b811462000cf057600080fd5b50565b614eaa8062000d036000396000f3fe608060405234801561001057600080fd5b506004361061014d5760003560e01c80637df124a1116100c3578063c87b56dd1161007c578063c87b56dd146103ca578063d018db3e146103fa578063e0cd1d6914610416578063e985e9c514610432578063efa1c48214610462578063f8b81ef7146104805761014d565b80637df124a1146102f057806395d89b411461032057806398da4c951461033e578063a22cb46514610374578063b88d4fde14610390578063b953084e146103ac5761014d565b806323b872dd1161011557806323b872dd1461021c578063241f0bfa1461023857806342842e0e1461025657806352f15b43146102725780636352211e1461029057806370a08231146102c05761014d565b806301ffc9a714610152578063025132541461018257806306fdde03146101b2578063081812fc146101d0578063095ea7b314610200575b600080fd5b61016c6004803603810190610167919061345b565b61049c565b60405161017991906143fb565b60405180910390f35b61019c600480360381019061019791906132b4565b61057e565b6040516101a991906147b3565b60405180910390f35b6101ba610762565b6040516101c79190614416565b60405180910390f35b6101ea60048036038101906101e591906134ad565b6107f4565b6040516101f79190614319565b60405180910390f35b61021a6004803603810190610215919061341f565b610879565b005b61023660048036038101906102319190613319565b610991565b005b6102406109f1565b60405161024d91906147d5565b60405180910390f35b610270600480360381019061026b9190613319565b6109f7565b005b61027a610a17565b60405161028791906147d5565b60405180910390f35b6102aa60048036038101906102a591906134ad565b610a1d565b6040516102b79190614319565b60405180910390f35b6102da60048036038101906102d591906132b4565b610acf565b6040516102e791906147d5565b60405180910390f35b61030a600480360381019061030591906132b4565b610b87565b60405161031791906147d5565b60405180910390f35b610328610b9f565b6040516103359190614416565b60405180910390f35b610358600480360381019061035391906134ad565b610c31565b60405161036b97969594939291906147f0565b60405180910390f35b61038e600480360381019061038991906133e3565b610d83565b005b6103aa60048036038101906103a59190613368565b610f04565b005b6103b4610f66565b6040516103c191906143d9565b60405180910390f35b6103e460048036038101906103df91906134ad565b61111b565b6040516103f19190614416565b60405180910390f35b610414600480360381019061040f91906132b4565b611354565b005b610430600480360381019061042b91906132b4565b611719565b005b61044c600480360381019061044791906132dd565b611af0565b60405161045991906143fb565b60405180910390f35b61046a611b84565b60405161047791906143b7565b60405180910390f35b61049a600480360381019061049591906134ad565b611c12565b005b60007f80ac58cd000000000000000000000000000000000000000000000000000000007bffffffffffffffffffffffffffffffffffffffffffffffffffffffff1916827bffffffffffffffffffffffffffffffffffffffffffffffffffffffff1916148061056757507f5b5e139f000000000000000000000000000000000000000000000000000000007bffffffffffffffffffffffffffffffffffffffffffffffffffffffff1916827bffffffffffffffffffffffffffffffffffffffffffffffffffffffff1916145b80610577575061057682612261565b5b9050919050565b610586613103565b6000600a60008473ffffffffffffffffffffffffffffffffffffffff1673ffffffffffffffffffffffffffffffffffffffff168152602001908152602001600020549050600081111561074f57600960008281526020019081526020016000206040518060e00160405290816000820154815260200160018201805461060b90614b88565b80601f016020809104026020016040519081016040528092919081815260200182805461063790614b88565b80156106845780601f1061065957610100808354040283529160200191610684565b820191906000526020600020905b81548152906001019060200180831161066757829003601f168201915b5050505050815260200160028201805461069d90614b88565b80601f01602080910402602001604051908101604052809291908181526020018280546106c990614b88565b80156107165780601f106106eb57610100808354040283529160200191610716565b820191906000526020600020905b8154815290600101906020018083116106f957829003601f168201915b5050505050815260200160038201548152602001600482015481526020016005820154815260200160068201548152505091505061075d565b610757613103565b80925050505b919050565b60606000805461077190614b88565b80601f016020809104026020016040519081016040528092919081815260200182805461079d90614b88565b80156107ea5780601f106107bf576101008083540402835291602001916107ea565b820191906000526020600020905b8154815290600101906020018083116107cd57829003601f168201915b5050505050905090565b60006107ff826122cb565b61083e576040517f08c379a000000000000000000000000000000000000000000000000000000000815260040161083590614733565b60405180910390fd5b6004600083815260200190815260200160002060009054906101000a900473ffffffffffffffffffffffffffffffffffffffff169050919050565b600061088482610a1d565b90508073ffffffffffffffffffffffffffffffffffffffff168373ffffffffffffffffffffffffffffffffffffffff1614156108f5576040517f08c379a00000000000000000000000000000000000000000000000000000000081526004016108ec90614773565b60405180910390fd5b8073ffffffffffffffffffffffffffffffffffffffff16610914612337565b73ffffffffffffffffffffffffffffffffffffffff16148061094357506109428161093d612337565b611af0565b5b610982576040517f08c379a000000000000000000000000000000000000000000000000000000000815260040161097990614693565b60405180910390fd5b61098c838361233f565b505050565b6109a261099c612337565b826123f8565b6109e1576040517f08c379a00000000000000000000000000000000000000000000000000000000081526004016109d890614793565b60405180910390fd5b6109ec8383836124d6565b505050565b60075481565b610a1283838360405180602001604052806000815250610f04565b505050565b600b5481565b6000806002600084815260200190815260200160002060009054906101000a900473ffffffffffffffffffffffffffffffffffffffff169050600073ffffffffffffffffffffffffffffffffffffffff168173ffffffffffffffffffffffffffffffffffffffff161415610ac6576040517f08c379a0000000000000000000000000000000000000000000000000000000008152600401610abd906146d3565b60405180910390fd5b80915050919050565b60008073ffffffffffffffffffffffffffffffffffffffff168273ffffffffffffffffffffffffffffffffffffffff161415610b40576040517f08c379a0000000000000000000000000000000000000000000000000000000008152600401610b37906146b3565b60405180910390fd5b600360008373ffffffffffffffffffffffffffffffffffffffff1673ffffffffffffffffffffffffffffffffffffffff168152602001908152602001600020549050919050565b600a6020528060005260406000206000915090505481565b606060018054610bae90614b88565b80601f0160208091040260200160405190810160405280929190818152602001828054610bda90614b88565b8015610c275780601f10610bfc57610100808354040283529160200191610c27565b820191906000526020600020905b815481529060010190602001808311610c0a57829003601f168201915b5050505050905090565b6009602052806000526040600020600091509050806000015490806001018054610c5a90614b88565b80601f0160208091040260200160405190810160405280929190818152602001828054610c8690614b88565b8015610cd35780601f10610ca857610100808354040283529160200191610cd3565b820191906000526020600020905b815481529060010190602001808311610cb657829003601f168201915b505050505090806002018054610ce890614b88565b80601f0160208091040260200160405190810160405280929190818152602001828054610d1490614b88565b8015610d615780601f10610d3657610100808354040283529160200191610d61565b820191906000526020600020905b815481529060010190602001808311610d4457829003601f168201915b5050505050908060030154908060040154908060050154908060060154905087565b610d8b612337565b73ffffffffffffffffffffffffffffffffffffffff168273ffffffffffffffffffffffffffffffffffffffff161415610df9576040517f08c379a0000000000000000000000000000000000000000000000000000000008152600401610df0906145f3565b60405180910390fd5b8060056000610e06612337565b73ffffffffffffffffffffffffffffffffffffffff1673ffffffffffffffffffffffffffffffffffffffff16815260200190815260200160002060008473ffffffffffffffffffffffffffffffffffffffff1673ffffffffffffffffffffffffffffffffffffffff16815260200190815260200160002060006101000a81548160ff0219169083151502179055508173ffffffffffffffffffffffffffffffffffffffff16610eb3612337565b73ffffffffffffffffffffffffffffffffffffffff167f17307eab39ab6107e8899845ad3d59bd9653f200f220920489ca2b5937696c3183604051610ef891906143fb565b60405180910390a35050565b610f15610f0f612337565b836123f8565b610f54576040517f08c379a0000000000000000000000000000000000000000000000000000000008152600401610f4b90614793565b60405180910390fd5b610f6084848484612732565b50505050565b60606008805480602002602001604051908101604052809291908181526020016000905b8282101561111257838290600052602060002090600702016040518060e001604052908160008201548152602001600182018054610fc790614b88565b80601f0160208091040260200160405190810160405280929190818152602001828054610ff390614b88565b80156110405780601f1061101557610100808354040283529160200191611040565b820191906000526020600020905b81548152906001019060200180831161102357829003601f168201915b5050505050815260200160028201805461105990614b88565b80601f016020809104026020016040519081016040528092919081815260200182805461108590614b88565b80156110d25780601f106110a7576101008083540402835291602001916110d2565b820191906000526020600020905b8154815290600101906020018083116110b557829003601f168201915b5050505050815260200160038201548152602001600482015481526020016005820154815260200160068201548152505081526020019060010190610f8a565b50505050905090565b60606000600960008481526020019081526020016000206040518060e00160405290816000820154815260200160018201805461115790614b88565b80601f016020809104026020016040519081016040528092919081815260200182805461118390614b88565b80156111d05780601f106111a5576101008083540402835291602001916111d0565b820191906000526020600020905b8154815290600101906020018083116111b357829003601f168201915b505050505081526020016002820180546111e990614b88565b80601f016020809104026020016040519081016040528092919081815260200182805461121590614b88565b80156112625780601f1061123757610100808354040283529160200191611262565b820191906000526020600020905b81548152906001019060200180831161124557829003601f168201915b50505050508152602001600382015481526020016004820154815260200160058201548152602001600682015481525050905060006112a4826060015161278e565b905060006112b5836080015161278e565b905060006112c68460a0015161278e565b905060006112d78560c0015161278e565b9050600061131f86602001516112ec8a61278e565b88604001518888888860405160200161130b979695949392919061423a565b60405160208183030381529060405261293b565b905060008160405160200161133491906142f7565b604051602081830303815290604052905080975050505050505050919050565b6000429050600754811061139d576040517f08c379a000000000000000000000000000000000000000000000000000000000815260040161139490614573565b60405180910390fd5b6000600a60008473ffffffffffffffffffffffffffffffffffffffff1673ffffffffffffffffffffffffffffffffffffffff16815260200190815260200160002054905060006009600083815260200190815260200160002090506000600a60003373ffffffffffffffffffffffffffffffffffffffff1673ffffffffffffffffffffffffffffffffffffffff168152602001908152602001600020549050600060096000838152602001908152602001600020905061150b6040518060600160405280603c8152602001614e39603c913982600101805461147e90614b88565b80601f01602080910402602001604051908101604052809291908181526020018280546114aa90614b88565b80156114f75780601f106114cc576101008083540402835291602001916114f7565b820191906000526020600020905b8154815290600101906020018083116114da57829003601f168201915b505050505083600301548460050154612af9565b6115e06040518060400160405280601d81526020017f5461726765742025732068617320257320485020616e6420257320414400000081525084600101805461155390614b88565b80601f016020809104026020016040519081016040528092919081815260200182805461157f90614b88565b80156115cc5780601f106115a1576101008083540402835291602001916115cc565b820191906000526020600020905b8154815290600101906020018083116115af57829003601f168201915b505050505085600301548660050154612af9565b6000816003015411611627576040517f08c379a000000000000000000000000000000000000000000000000000000000815260040161161e90614653565b60405180910390fd5b600083600301541161166e576040517f08c379a0000000000000000000000000000000000000000000000000000000008152600401611665906146f3565b60405180910390fd5b80600501548360030154101561168d57600083600301819055506116aa565b806005015483600301546116a19190614a9e565b83600301819055505b6116d0604051806060016040528060298152602001614d5e602991398460030154612b9b565b7f838ab28464562786a6c4ab2311964b82fa60bd9b14aa7e856af1f3f18d41a4148360030154826003015460405161170992919061486d565b60405180910390a1505050505050565b60004290506007548110611762576040517f08c379a000000000000000000000000000000000000000000000000000000000815260040161175990614573565b60405180910390fd5b6000600a60008473ffffffffffffffffffffffffffffffffffffffff1673ffffffffffffffffffffffffffffffffffffffff16815260200190815260200160002054905060006009600083815260200190815260200160002090506000600a60003373ffffffffffffffffffffffffffffffffffffffff1673ffffffffffffffffffffffffffffffffffffffff16815260200190815260200160002054905060006009600083815260200190815260200160002090506118d0604051806080016040528060448152602001614dc76044913982600101805461184390614b88565b80601f016020809104026020016040519081016040528092919081815260200182805461186f90614b88565b80156118bc5780601f10611891576101008083540402835291602001916118bc565b820191906000526020600020905b81548152906001019060200180831161189f57829003601f168201915b505050505083600301548460060154612af9565b6119a56040518060400160405280601381526020017f546172676574202573206861732025732048500000000000000000000000000081525084600101805461191890614b88565b80601f016020809104026020016040519081016040528092919081815260200182805461194490614b88565b80156119915780601f1061196657610100808354040283529160200191611991565b820191906000526020600020905b81548152906001019060200180831161197457829003601f168201915b505050505085600301548660060154612af9565b60008160030154116119ec576040517f08c379a00000000000000000000000000000000000000000000000000000000081526004016119e390614673565b60405180910390fd5b6000836003015411611a33576040517f08c379a0000000000000000000000000000000000000000000000000000000008152600401611a2a90614613565b60405180910390fd5b806006015483600301548460040154611a4c9190614a9e565b1015611a645782600401548360030181905550611a81565b80600601548360030154611a7891906149bd565b83600301819055505b611aa7604051806060016040528060298152602001614d5e602991398460030154612b9b565b7fbe48ddc4757287d79e6453c381ab1b1a1c1d18a4fdcf61bde378de226024f22c83600301548260030154604051611ae092919061486d565b60405180910390a1505050505050565b6000600560008473ffffffffffffffffffffffffffffffffffffffff1673ffffffffffffffffffffffffffffffffffffffff16815260200190815260200160002060008373ffffffffffffffffffffffffffffffffffffffff1673ffffffffffffffffffffffffffffffffffffffff16815260200190815260200160002060009054906101000a900460ff16905092915050565b6060600c805480602002602001604051908101604052809291908181526020018280548015611c0857602002820191906000526020600020905b8160009054906101000a900473ffffffffffffffffffffffffffffffffffffffff1673ffffffffffffffffffffffffffffffffffffffff1681526020019060010190808311611bbe575b5050505050905090565b600d60003373ffffffffffffffffffffffffffffffffffffffff1673ffffffffffffffffffffffffffffffffffffffff16815260200190815260200160002060009054906101000a900460ff1615611c9f576040517f08c379a0000000000000000000000000000000000000000000000000000000008152600401611c9690614553565b60405180910390fd5b6000611cab6006612c37565b9050611cb73382612c45565b6040518060e0016040528083815260200160088481548110611d02577f4e487b7100000000000000000000000000000000000000000000000000000000600052603260045260246000fd5b90600052602060002090600702016001018054611d1e90614b88565b80601f0160208091040260200160405190810160405280929190818152602001828054611d4a90614b88565b8015611d975780601f10611d6c57610100808354040283529160200191611d97565b820191906000526020600020905b815481529060010190602001808311611d7a57829003601f168201915b5050505050815260200160088481548110611ddb577f4e487b7100000000000000000000000000000000000000000000000000000000600052603260045260246000fd5b90600052602060002090600702016002018054611df790614b88565b80601f0160208091040260200160405190810160405280929190818152602001828054611e2390614b88565b8015611e705780601f10611e4557610100808354040283529160200191611e70565b820191906000526020600020905b815481529060010190602001808311611e5357829003601f168201915b5050505050815260200160088481548110611eb4577f4e487b7100000000000000000000000000000000000000000000000000000000600052603260045260246000fd5b906000526020600020906007020160030154815260200160088481548110611f05577f4e487b7100000000000000000000000000000000000000000000000000000000600052603260045260246000fd5b906000526020600020906007020160040154815260200160088481548110611f56577f4e487b7100000000000000000000000000000000000000000000000000000000600052603260045260246000fd5b906000526020600020906007020160050154815260200160088481548110611fa7577f4e487b7100000000000000000000000000000000000000000000000000000000600052603260045260246000fd5b90600052602060002090600702016006015481525060096000838152602001908152602001600020600082015181600001556020820151816001019080519060200190611ff5929190613140565b506040820151816002019080519060200190612012929190613140565b50606082015181600301556080820151816004015560a0820151816005015560c082015181600601559050506120616040518060600160405280602e8152602001614e0b602e91398284612c63565b80600a60003373ffffffffffffffffffffffffffffffffffffffff1673ffffffffffffffffffffffffffffffffffffffff16815260200190815260200160002081905550600c339080600181540180825580915050600190039060005260206000200160009091909190916101000a81548173ffffffffffffffffffffffffffffffffffffffff021916908373ffffffffffffffffffffffffffffffffffffffff1602179055506001600d60003373ffffffffffffffffffffffffffffffffffffffff1673ffffffffffffffffffffffffffffffffffffffff16815260200190815260200160002060006101000a81548160ff02191690831515021790555061216a600661224b565b7f4bc303fd457a97b4691b9af582ce71868a3d258638c8d4f8c60988a0f0bfb8cd33828460405161219d93929190614380565b60405180910390a15050565b612245848484846040516024016121c39493929190614438565b6040516020818303038152906040527f8d142cdd000000000000000000000000000000000000000000000000000000007bffffffffffffffffffffffffffffffffffffffffffffffffffffffff19166020820180517bffffffffffffffffffffffffffffffffffffffffffffffffffffffff8381831617835250505050612d02565b50505050565b6001816000016000828254019250508190555050565b60007f01ffc9a7000000000000000000000000000000000000000000000000000000007bffffffffffffffffffffffffffffffffffffffffffffffffffffffff1916827bffffffffffffffffffffffffffffffffffffffffffffffffffffffff1916149050919050565b60008073ffffffffffffffffffffffffffffffffffffffff166002600084815260200190815260200160002060009054906101000a900473ffffffffffffffffffffffffffffffffffffffff1673ffffffffffffffffffffffffffffffffffffffff1614159050919050565b600033905090565b816004600083815260200190815260200160002060006101000a81548173ffffffffffffffffffffffffffffffffffffffff021916908373ffffffffffffffffffffffffffffffffffffffff160217905550808273ffffffffffffffffffffffffffffffffffffffff166123b283610a1d565b73ffffffffffffffffffffffffffffffffffffffff167f8c5be1e5ebec7d5bd14f71427d1e84f3dd0314c0f7b2291e5b200ac8c7c3b92560405160405180910390a45050565b6000612403826122cb565b612442576040517f08c379a000000000000000000000000000000000000000000000000000000000815260040161243990614633565b60405180910390fd5b600061244d83610a1d565b90508073ffffffffffffffffffffffffffffffffffffffff168473ffffffffffffffffffffffffffffffffffffffff1614806124bc57508373ffffffffffffffffffffffffffffffffffffffff166124a4846107f4565b73ffffffffffffffffffffffffffffffffffffffff16145b806124cd57506124cc8185611af0565b5b91505092915050565b8273ffffffffffffffffffffffffffffffffffffffff166124f682610a1d565b73ffffffffffffffffffffffffffffffffffffffff161461254c576040517f08c379a000000000000000000000000000000000000000000000000000000000815260040161254390614753565b60405180910390fd5b600073ffffffffffffffffffffffffffffffffffffffff168273ffffffffffffffffffffffffffffffffffffffff1614156125bc576040517f08c379a00000000000000000000000000000000000000000000000000000000081526004016125b3906145d3565b60405180910390fd5b6125c7838383612d2b565b6125d260008261233f565b6001600360008573ffffffffffffffffffffffffffffffffffffffff1673ffffffffffffffffffffffffffffffffffffffff16815260200190815260200160002060008282546126229190614a9e565b925050819055506001600360008473ffffffffffffffffffffffffffffffffffffffff1673ffffffffffffffffffffffffffffffffffffffff168152602001908152602001600020600082825461267991906149bd565b92505081905550816002600083815260200190815260200160002060006101000a81548173ffffffffffffffffffffffffffffffffffffffff021916908373ffffffffffffffffffffffffffffffffffffffff160217905550808273ffffffffffffffffffffffffffffffffffffffff168473ffffffffffffffffffffffffffffffffffffffff167fddf252ad1be2c89b69c2b068fc378daa952ba7f163c4a11628f55a4df523b3ef60405160405180910390a4505050565b61273d8484846124d6565b61274984848484612d30565b612788576040517f08c379a000000000000000000000000000000000000000000000000000000000815260040161277f90614593565b60405180910390fd5b50505050565b606060008214156127d6576040518060400160405280600181526020017f30000000000000000000000000000000000000000000000000000000000000008152509050612936565b600082905060005b600082146128085780806127f190614bba565b915050600a826128019190614a13565b91506127de565b60008167ffffffffffffffff81111561284a577f4e487b7100000000000000000000000000000000000000000000000000000000600052604160045260246000fd5b6040519080825280601f01601f19166020018201604052801561287c5781602001600182028036833780820191505090505b5090505b6000851461292f576001826128959190614a9e565b9150600a856128a49190614c03565b60306128b091906149bd565b60f81b8183815181106128ec577f4e487b7100000000000000000000000000000000000000000000000000000000600052603260045260246000fd5b60200101907effffffffffffffffffffffffffffffffffffffffffffffffffffffffffffff1916908160001a905350600a856129289190614a13565b9450612880565b8093505050505b919050565b606060008251905060008114156129645760405180602001604052806000815250915050612af4565b6000600360028361297591906149bd565b61297f9190614a13565b600461298b9190614a44565b9050600060208261299c91906149bd565b67ffffffffffffffff8111156129db577f4e487b7100000000000000000000000000000000000000000000000000000000600052604160045260246000fd5b6040519080825280601f01601f191660200182016040528015612a0d5781602001600182028036833780820191505090505b5090506000604051806060016040528060408152602001614d87604091399050600181016020830160005b86811015612ab15760038101905062ffffff818a015116603f8160121c168401518060081b905060ff603f83600c1c1686015116810190508060081b905060ff603f8360061c1686015116810190508060081b905060ff603f831686015116810190508060e01b90508084526004840193505050612a38565b506003860660018114612acb5760028114612adb57612ae6565b613d3d60f01b6002830352612ae6565b603d60f81b60018303525b508484525050819450505050505b919050565b612b9584848484604051602401612b139493929190614492565b6040516020818303038152906040527fd5cf17d0000000000000000000000000000000000000000000000000000000007bffffffffffffffffffffffffffffffffffffffffffffffffffffffff19166020820180517bffffffffffffffffffffffffffffffffffffffffffffffffffffffff8381831617835250505050612d02565b50505050565b612c338282604051602401612bb19291906144e5565b6040516020818303038152906040527f9710a9d0000000000000000000000000000000000000000000000000000000007bffffffffffffffffffffffffffffffffffffffffffffffffffffffff19166020820180517bffffffffffffffffffffffffffffffffffffffffffffffffffffffff8381831617835250505050612d02565b5050565b600081600001549050919050565b612c5f828260405180602001604052806000815250612ec7565b5050565b612cfd838383604051602401612c7b93929190614515565b6040516020818303038152906040527f969cdd03000000000000000000000000000000000000000000000000000000007bffffffffffffffffffffffffffffffffffffffffffffffffffffffff19166020820180517bffffffffffffffffffffffffffffffffffffffffffffffffffffffff8381831617835250505050612d02565b505050565b60008151905060006a636f6e736f6c652e6c6f679050602083016000808483855afa5050505050565b505050565b6000612d518473ffffffffffffffffffffffffffffffffffffffff16612f22565b15612eba578373ffffffffffffffffffffffffffffffffffffffff1663150b7a02612d7a612337565b8786866040518563ffffffff1660e01b8152600401612d9c9493929190614334565b602060405180830381600087803b158015612db657600080fd5b505af1925050508015612de757506040513d601f19601f82011682018060405250810190612de49190613484565b60015b612e6a573d8060008114612e17576040519150601f19603f3d011682016040523d82523d6000602084013e612e1c565b606091505b50600081511415612e62576040517f08c379a0000000000000000000000000000000000000000000000000000000008152600401612e5990614593565b60405180910390fd5b805181602001fd5b63150b7a0260e01b7bffffffffffffffffffffffffffffffffffffffffffffffffffffffff1916817bffffffffffffffffffffffffffffffffffffffffffffffffffffffff191614915050612ebf565b600190505b949350505050565b612ed18383612f35565b612ede6000848484612d30565b612f1d576040517f08c379a0000000000000000000000000000000000000000000000000000000008152600401612f1490614593565b60405180910390fd5b505050565b600080823b905060008111915050919050565b600073ffffffffffffffffffffffffffffffffffffffff168273ffffffffffffffffffffffffffffffffffffffff161415612fa5576040517f08c379a0000000000000000000000000000000000000000000000000000000008152600401612f9c90614713565b60405180910390fd5b612fae816122cb565b15612fee576040517f08c379a0000000000000000000000000000000000000000000000000000000008152600401612fe5906145b3565b60405180910390fd5b612ffa60008383612d2b565b6001600360008473ffffffffffffffffffffffffffffffffffffffff1673ffffffffffffffffffffffffffffffffffffffff168152602001908152602001600020600082825461304a91906149bd565b92505081905550816002600083815260200190815260200160002060006101000a81548173ffffffffffffffffffffffffffffffffffffffff021916908373ffffffffffffffffffffffffffffffffffffffff160217905550808273ffffffffffffffffffffffffffffffffffffffff16600073ffffffffffffffffffffffffffffffffffffffff167fddf252ad1be2c89b69c2b068fc378daa952ba7f163c4a11628f55a4df523b3ef60405160405180910390a45050565b6040518060e00160405280600081526020016060815260200160608152602001600081526020016000815260200160008152602001600081525090565b82805461314c90614b88565b90600052602060002090601f01602090048101928261316e57600085556131b5565b82601f1061318757805160ff19168380011785556131b5565b828001600101855582156131b5579182015b828111156131b4578251825591602001919060010190613199565b5b5090506131c291906131c6565b5090565b5b808211156131df5760008160009055506001016131c7565b5090565b60006131f66131f1846148c7565b614896565b90508281526020810184848401111561320e57600080fd5b613219848285614b46565b509392505050565b60008135905061323081614d01565b92915050565b60008135905061324581614d18565b92915050565b60008135905061325a81614d2f565b92915050565b60008151905061326f81614d2f565b92915050565b600082601f83011261328657600080fd5b81356132968482602086016131e3565b91505092915050565b6000813590506132ae81614d46565b92915050565b6000602082840312156132c657600080fd5b60006132d484828501613221565b91505092915050565b600080604083850312156132f057600080fd5b60006132fe85828601613221565b925050602061330f85828601613221565b9150509250929050565b60008060006060848603121561332e57600080fd5b600061333c86828701613221565b935050602061334d86828701613221565b925050604061335e8682870161329f565b9150509250925092565b6000806000806080858703121561337e57600080fd5b600061338c87828801613221565b945050602061339d87828801613221565b93505060406133ae8782880161329f565b925050606085013567ffffffffffffffff8111156133cb57600080fd5b6133d787828801613275565b91505092959194509250565b600080604083850312156133f657600080fd5b600061340485828601613221565b925050602061341585828601613236565b9150509250929050565b6000806040838503121561343257600080fd5b600061344085828601613221565b92505060206134518582860161329f565b9150509250929050565b60006020828403121561346d57600080fd5b600061347b8482850161324b565b91505092915050565b60006020828403121561349657600080fd5b60006134a484828501613260565b91505092915050565b6000602082840312156134bf57600080fd5b60006134cd8482850161329f565b91505092915050565b60006134e28383613502565b60208301905092915050565b60006134fa83836140d6565b905092915050565b61350b81614ad2565b82525050565b61351a81614ad2565b82525050565b600061352b82614917565b613535818561495d565b9350613540836148f7565b8060005b8381101561357157815161355888826134d6565b975061356383614943565b925050600181019050613544565b5085935050505092915050565b600061358982614922565b613593818561496e565b9350836020820285016135a585614907565b8060005b858110156135e157848403895281516135c285826134ee565b94506135cd83614950565b925060208a019950506001810190506135a9565b50829750879550505050505092915050565b6135fc81614ae4565b82525050565b600061360d8261492d565b613617818561497f565b9350613627818560208601614b55565b61363081614cf0565b840191505092915050565b600061364682614938565b6136508185614990565b9350613660818560208601614b55565b61366981614cf0565b840191505092915050565b600061367f82614938565b61368981856149a1565b9350613699818560208601614b55565b6136a281614cf0565b840191505092915050565b60006136b882614938565b6136c281856149b2565b93506136d2818560208601614b55565b80840191505092915050565b60006136eb601d836149a1565b91507f4572726f723a20596f7520616c7265616479206f776e20616e204e46540000006000830152602082019050919050565b600061372b600b836149b2565b91507f202d2d204e465420233a200000000000000000000000000000000000000000006000830152600b82019050919050565b600061376b6032836149a1565b91507f4572726f723a20636f6e747261637420776173206f6e6c792076616c6964207560008301527f6e74696c204465632032352c20323032312e00000000000000000000000000006020830152604082019050919050565b60006137d16032836149a1565b91507f4552433732313a207472616e7366657220746f206e6f6e20455243373231526560008301527f63656976657220696d706c656d656e74657200000000000000000000000000006020830152604082019050919050565b6000613837605f836149b2565b91507f222c20226465736372697074696f6e223a20225468697320697320616e204e4660008301527f542074686174206c6574732070656f706c6520706c617920696e20746865206760208301527f616d652053616e7461576172732067616d65222c2022696d616765223a2022006040830152605f82019050919050565b60006138c3601c836149a1565b91507f4552433732313a20746f6b656e20616c7265616479206d696e746564000000006000830152602082019050919050565b6000613903600e836149b2565b91507f2c20226d61785f76616c7565223a0000000000000000000000000000000000006000830152600e82019050919050565b60006139436024836149a1565b91507f4552433732313a207472616e7366657220746f20746865207a65726f2061646460008301527f72657373000000000000000000000000000000000000000000000000000000006020830152604082019050919050565b60006139a96019836149a1565b91507f4552433732313a20617070726f766520746f2063616c6c6572000000000000006000830152602082019050919050565b60006139e96028836149a1565b91507f4572726f723a20746172676574206d75737420626520616c69766520746f206260008301527f65206865616c65640000000000000000000000000000000000000000000000006020830152604082019050919050565b6000613a4f602c836149a1565b91507f4552433732313a206f70657261746f7220717565727920666f72206e6f6e657860008301527f697374656e7420746f6b656e00000000000000000000000000000000000000006020830152604082019050919050565b6000613ab5602d836149b2565b91507f7d2c207b202274726169745f74797065223a20224865616c696e6720506f776560008301527f72222c202276616c7565223a20000000000000000000000000000000000000006020830152602d82019050919050565b6000613b1b602f836149a1565b91507f4572726f723a20636861726163746572206d757374206861766520485020746f60008301527f2061747461636b207461726765742e00000000000000000000000000000000006020830152604082019050919050565b6000613b816039836149a1565b91507f4572726f723a20636861726163746572206d7573742068617665206d6f72652060008301527f7468616e203020485020746f206865616c207461726765742e000000000000006020830152604082019050919050565b6000613be76038836149a1565b91507f4552433732313a20617070726f76652063616c6c6572206973206e6f74206f7760008301527f6e6572206e6f7220617070726f76656420666f7220616c6c00000000000000006020830152604082019050919050565b6000613c4d602a836149a1565b91507f4552433732313a2062616c616e636520717565727920666f7220746865207a6560008301527f726f2061646472657373000000000000000000000000000000000000000000006020830152604082019050919050565b6000613cb36029836149a1565b91507f4552433732313a206f776e657220717565727920666f72206e6f6e657869737460008301527f656e7420746f6b656e00000000000000000000000000000000000000000000006020830152604082019050919050565b6000613d19602a836149a1565b91507f4572726f723a20746172676574206d757374206861766520485020746f20626560008301527f2061747461636b65642e000000000000000000000000000000000000000000006020830152604082019050919050565b6000613d7f6004836149b2565b91507f7d205d7d000000000000000000000000000000000000000000000000000000006000830152600482019050919050565b6000613dbf6020836149a1565b91507f4552433732313a206d696e7420746f20746865207a65726f20616464726573736000830152602082019050919050565b6000613dff602c836149a1565b91507f4552433732313a20617070726f76656420717565727920666f72206e6f6e657860008301527f697374656e7420746f6b656e00000000000000000000000000000000000000006020830152604082019050919050565b6000613e656029836149a1565b91507f4552433732313a207472616e73666572206f6620746f6b656e2074686174206960008301527f73206e6f74206f776e00000000000000000000000000000000000000000000006020830152604082019050919050565b6000613ecb600a836149b2565b91507f7b226e616d65223a2022000000000000000000000000000000000000000000006000830152600a82019050919050565b6000613f0b6021836149a1565b91507f4552433732313a20617070726f76616c20746f2063757272656e74206f776e6560008301527f72000000000000000000000000000000000000000000000000000000000000006020830152604082019050919050565b6000613f71601d836149b2565b91507f646174613a6170706c69636174696f6e2f6a736f6e3b6261736536342c0000006000830152601d82019050919050565b6000613fb16031836149a1565b91507f4552433732313a207472616e736665722063616c6c6572206973206e6f74206f60008301527f776e6572206e6f7220617070726f7665640000000000000000000000000000006020830152604082019050919050565b6000614017603d836149b2565b91507f222c202261747472696275746573223a205b207b202274726169745f7479706560008301527f223a20224865616c746820506f696e7473222c202276616c7565223a200000006020830152603d82019050919050565b600061407d602d836149b2565b91507f7d2c207b202274726169745f74797065223a202241747461636b2044616d616760008301527f65222c202276616c7565223a20000000000000000000000000000000000000006020830152602d82019050919050565b600060e0830160008301516140ee600086018261421c565b5060208301518482036020860152614106828261363b565b91505060408301518482036040860152614120828261363b565b9150506060830151614135606086018261421c565b506080830151614148608086018261421c565b5060a083015161415b60a086018261421c565b5060c083015161416e60c086018261421c565b508091505092915050565b600060e083016000830151614191600086018261421c565b50602083015184820360208601526141a9828261363b565b915050604083015184820360408601526141c3828261363b565b91505060608301516141d8606086018261421c565b5060808301516141eb608086018261421c565b5060a08301516141fe60a086018261421c565b5060c083015161421160c086018261421c565b508091505092915050565b61422581614b3c565b82525050565b61423481614b3c565b82525050565b600061424582613ebe565b9150614251828a6136ad565b915061425c8261371e565b915061426882896136ad565b91506142738261382a565b915061427f82886136ad565b915061428a8261400a565b915061429682876136ad565b91506142a1826138f6565b91506142ad82866136ad565b91506142b882614070565b91506142c482856136ad565b91506142cf82613aa8565b91506142db82846136ad565b91506142e682613d72565b915081905098975050505050505050565b600061430282613f64565b915061430e82846136ad565b915081905092915050565b600060208201905061432e6000830184613511565b92915050565b60006080820190506143496000830187613511565b6143566020830186613511565b614363604083018561422b565b81810360608301526143758184613602565b905095945050505050565b60006060820190506143956000830186613511565b6143a2602083018561422b565b6143af604083018461422b565b949350505050565b600060208201905081810360008301526143d18184613520565b905092915050565b600060208201905081810360008301526143f3818461357e565b905092915050565b600060208201905061441060008301846135f3565b92915050565b600060208201905081810360008301526144308184613674565b905092915050565b600060808201905081810360008301526144528187613674565b905081810360208301526144668186613674565b9050614475604083018561422b565b81810360608301526144878184613674565b905095945050505050565b600060808201905081810360008301526144ac8187613674565b905081810360208301526144c08186613674565b90506144cf604083018561422b565b6144dc606083018461422b565b95945050505050565b600060408201905081810360008301526144ff8185613674565b905061450e602083018461422b565b9392505050565b6000606082019050818103600083015261452f8186613674565b905061453e602083018561422b565b61454b604083018461422b565b949350505050565b6000602082019050818103600083015261456c816136de565b9050919050565b6000602082019050818103600083015261458c8161375e565b9050919050565b600060208201905081810360008301526145ac816137c4565b9050919050565b600060208201905081810360008301526145cc816138b6565b9050919050565b600060208201905081810360008301526145ec81613936565b9050919050565b6000602082019050818103600083015261460c8161399c565b9050919050565b6000602082019050818103600083015261462c816139dc565b9050919050565b6000602082019050818103600083015261464c81613a42565b9050919050565b6000602082019050818103600083015261466c81613b0e565b9050919050565b6000602082019050818103600083015261468c81613b74565b9050919050565b600060208201905081810360008301526146ac81613bda565b9050919050565b600060208201905081810360008301526146cc81613c40565b9050919050565b600060208201905081810360008301526146ec81613ca6565b9050919050565b6000602082019050818103600083015261470c81613d0c565b9050919050565b6000602082019050818103600083015261472c81613db2565b9050919050565b6000602082019050818103600083015261474c81613df2565b9050919050565b6000602082019050818103600083015261476c81613e58565b9050919050565b6000602082019050818103600083015261478c81613efe565b9050919050565b600060208201905081810360008301526147ac81613fa4565b9050919050565b600060208201905081810360008301526147cd8184614179565b905092915050565b60006020820190506147ea600083018461422b565b92915050565b600060e082019050614805600083018a61422b565b81810360208301526148178189613674565b9050818103604083015261482b8188613674565b905061483a606083018761422b565b614847608083018661422b565b61485460a083018561422b565b61486160c083018461422b565b98975050505050505050565b6000604082019050614882600083018561422b565b61488f602083018461422b565b9392505050565b6000604051905081810181811067ffffffffffffffff821117156148bd576148bc614cc1565b5b8060405250919050565b600067ffffffffffffffff8211156148e2576148e1614cc1565b5b601f19601f8301169050602081019050919050565b6000819050602082019050919050565b6000819050602082019050919050565b600081519050919050565b600081519050919050565b600081519050919050565b600081519050919050565b6000602082019050919050565b6000602082019050919050565b600082825260208201905092915050565b600082825260208201905092915050565b600082825260208201905092915050565b600082825260208201905092915050565b600082825260208201905092915050565b600081905092915050565b60006149c882614b3c565b91506149d383614b3c565b9250827fffffffffffffffffffffffffffffffffffffffffffffffffffffffffffffffff03821115614a0857614a07614c34565b5b828201905092915050565b6000614a1e82614b3c565b9150614a2983614b3c565b925082614a3957614a38614c63565b5b828204905092915050565b6000614a4f82614b3c565b9150614a5a83614b3c565b9250817fffffffffffffffffffffffffffffffffffffffffffffffffffffffffffffffff0483118215151615614a9357614a92614c34565b5b828202905092915050565b6000614aa982614b3c565b9150614ab483614b3c565b925082821015614ac757614ac6614c34565b5b828203905092915050565b6000614add82614b1c565b9050919050565b60008115159050919050565b60007fffffffff0000000000000000000000000000000000000000000000000000000082169050919050565b600073ffffffffffffffffffffffffffffffffffffffff82169050919050565b6000819050919050565b82818337600083830152505050565b60005b83811015614b73578082015181840152602081019050614b58565b83811115614b82576000848401525b50505050565b60006002820490506001821680614ba057607f821691505b60208210811415614bb457614bb3614c92565b5b50919050565b6000614bc582614b3c565b91507fffffffffffffffffffffffffffffffffffffffffffffffffffffffffffffffff821415614bf857614bf7614c34565b5b600182019050919050565b6000614c0e82614b3c565b9150614c1983614b3c565b925082614c2957614c28614c63565b5b828206905092915050565b7f4e487b7100000000000000000000000000000000000000000000000000000000600052601160045260246000fd5b7f4e487b7100000000000000000000000000000000000000000000000000000000600052601260045260246000fd5b7f4e487b7100000000000000000000000000000000000000000000000000000000600052602260045260246000fd5b7f4e487b7100000000000000000000000000000000000000000000000000000000600052604160045260246000fd5b6000601f19601f8301169050919050565b614d0a81614ad2565b8114614d1557600080fd5b50565b614d2181614ae4565b8114614d2c57600080fd5b50565b614d3881614af0565b8114614d4357600080fd5b50565b614d4f81614b3c565b8114614d5a57600080fd5b5056fe506c617965722061747461636b6564207461726765742e204e6577207461726765742068703a2025734142434445464748494a4b4c4d4e4f505152535455565758595a6162636465666768696a6b6c6d6e6f707172737475767778797a303132333435363738392b2f0a506c6179657220772f206368617261637465722025732061626f757420746f2061747461636b2e2048617320257320485020616e64202573204865616c20506f7765724d696e746564204e465420772f20746f6b656e496420257320616e6420636861726163746572496e6465782025730a506c6179657220772f206368617261637465722025732061626f757420746f2061747461636b2e2048617320257320485020616e64202573204144a264697066735822122037bc42e4dee65cf462017250356f216c16b9c08f63ad90409636cbf4c29eb8a064736f6c63430008000033446f6e6520696e697469616c697a696e6720257320772f2048502025732c20696d67202573",
  "linkReferences": {},
  "deployedLinkReferences": {}
}