{
  "_format": "hh-sol-artifact-1",
  "contractName": "SantaWars",
  "sourceName": "contracts/SantaWars.sol",
  "abi": [
    {
      "inputs": [
        {
          "internalType": "string[]",
          "name": "characterNames",
          "type": "string[]"
        },
        {
          "internalType": "string[]",
          "name": "characterImageURIs",
          "type": "string[]"
        },
        {
          "internalType": "uint256[]",
          "name": "characterHp",
          "type": "uint256[]"
        },
        {
          "internalType": "uint256[]",
          "name": "characterAttackDmg",
          "type": "uint256[]"
        },
        {
          "internalType": "uint256[]",
          "name": "characterHealingPwr",
          "type": "uint256[]"
        }
      ],
      "stateMutability": "nonpayable",
      "type": "constructor"
    },
    {
      "anonymous": false,
      "inputs": [
        {
          "indexed": true,
          "internalType": "address",
          "name": "owner",
          "type": "address"
        },
        {
          "indexed": true,
          "internalType": "address",
          "name": "approved",
          "type": "address"
        },
        {
          "indexed": true,
          "internalType": "uint256",
          "name": "tokenId",
          "type": "uint256"
        }
      ],
      "name": "Approval",
      "type": "event"
    },
    {
      "anonymous": false,
      "inputs": [
        {
          "indexed": true,
          "internalType": "address",
          "name": "owner",
          "type": "address"
        },
        {
          "indexed": true,
          "internalType": "address",
          "name": "operator",
          "type": "address"
        },
        {
          "indexed": false,
          "internalType": "bool",
          "name": "approved",
          "type": "bool"
        }
      ],
      "name": "ApprovalForAll",
      "type": "event"
    },
    {
      "anonymous": false,
      "inputs": [
        {
          "indexed": false,
          "internalType": "uint256",
          "name": "newTargetHp",
          "type": "uint256"
        },
        {
          "indexed": false,
          "internalType": "uint256",
          "name": "newPlayerHp",
          "type": "uint256"
        }
      ],
      "name": "AttackComplete",
      "type": "event"
    },
    {
      "anonymous": false,
      "inputs": [
        {
          "indexed": false,
          "internalType": "address",
          "name": "sender",
          "type": "address"
        },
        {
          "indexed": false,
          "internalType": "uint256",
          "name": "tokenId",
          "type": "uint256"
        },
        {
          "indexed": false,
          "internalType": "uint256",
          "name": "characterIndex",
          "type": "uint256"
        }
      ],
      "name": "CharacterNFTMinted",
      "type": "event"
    },
    {
      "anonymous": false,
      "inputs": [
        {
          "indexed": false,
          "internalType": "uint256",
          "name": "newTargetHp",
          "type": "uint256"
        },
        {
          "indexed": false,
          "internalType": "uint256",
          "name": "newPlayerHp",
          "type": "uint256"
        }
      ],
      "name": "HealComplete",
      "type": "event"
    },
    {
      "anonymous": false,
      "inputs": [
        {
          "indexed": true,
          "internalType": "address",
          "name": "from",
          "type": "address"
        },
        {
          "indexed": true,
          "internalType": "address",
          "name": "to",
          "type": "address"
        },
        {
          "indexed": true,
          "internalType": "uint256",
          "name": "tokenId",
          "type": "uint256"
        }
      ],
      "name": "Transfer",
      "type": "event"
    },
    {
      "inputs": [
        {
          "internalType": "address",
          "name": "to",
          "type": "address"
        },
        {
          "internalType": "uint256",
          "name": "tokenId",
          "type": "uint256"
        }
      ],
      "name": "approve",
      "outputs": [],
      "stateMutability": "nonpayable",
      "type": "function"
    },
    {
      "inputs": [
        {
          "internalType": "address",
          "name": "targetAddress",
          "type": "address"
        }
      ],
      "name": "attack",
      "outputs": [],
      "stateMutability": "nonpayable",
      "type": "function"
    },
    {
      "inputs": [
        {
          "internalType": "address",
          "name": "owner",
          "type": "address"
        }
      ],
      "name": "balanceOf",
      "outputs": [
        {
          "internalType": "uint256",
          "name": "",
          "type": "uint256"
        }
      ],
      "stateMutability": "view",
      "type": "function"
    },
    {
      "inputs": [],
      "name": "deadlineTime",
      "outputs": [
        {
          "internalType": "uint256",
          "name": "",
          "type": "uint256"
        }
      ],
      "stateMutability": "view",
      "type": "function"
    },
    {
      "inputs": [],
      "name": "getAllDefaultCharacters",
      "outputs": [
        {
          "components": [
            {
              "internalType": "uint256",
              "name": "characterIndex",
              "type": "uint256"
            },
            {
              "internalType": "string",
              "name": "name",
              "type": "string"
            },
            {
              "internalType": "string",
              "name": "imageURI",
              "type": "string"
            },
            {
              "internalType": "uint256",
              "name": "hp",
              "type": "uint256"
            },
            {
              "internalType": "uint256",
              "name": "maxHp",
              "type": "uint256"
            },
            {
              "internalType": "uint256",
              "name": "attackDamage",
              "type": "uint256"
            },
            {
              "internalType": "uint256",
              "name": "healingPower",
              "type": "uint256"
            }
          ],
          "internalType": "struct SantaWars.CharacterAttributes[]",
          "name": "",
          "type": "tuple[]"
        }
      ],
      "stateMutability": "view",
      "type": "function"
    },
    {
      "inputs": [],
      "name": "getAllPlayers",
      "outputs": [
        {
          "internalType": "address[]",
          "name": "",
          "type": "address[]"
        }
      ],
      "stateMutability": "view",
      "type": "function"
    },
    {
      "inputs": [
        {
          "internalType": "uint256",
          "name": "tokenId",
          "type": "uint256"
        }
      ],
      "name": "getApproved",
      "outputs": [
        {
          "internalType": "address",
          "name": "",
          "type": "address"
        }
      ],
      "stateMutability": "view",
      "type": "function"
    },
    {
      "inputs": [
        {
          "internalType": "address",
          "name": "targetAddress",
          "type": "address"
        }
      ],
      "name": "getNFTOnUser",
      "outputs": [
        {
          "components": [
            {
              "internalType": "uint256",
              "name": "characterIndex",
              "type": "uint256"
            },
            {
              "internalType": "string",
              "name": "name",
              "type": "string"
            },
            {
              "internalType": "string",
              "name": "imageURI",
              "type": "string"
            },
            {
              "internalType": "uint256",
              "name": "hp",
              "type": "uint256"
            },
            {
              "internalType": "uint256",
              "name": "maxHp",
              "type": "uint256"
            },
            {
              "internalType": "uint256",
              "name": "attackDamage",
              "type": "uint256"
            },
            {
              "internalType": "uint256",
              "name": "healingPower",
              "type": "uint256"
            }
          ],
          "internalType": "struct SantaWars.CharacterAttributes",
          "name": "",
          "type": "tuple"
        }
      ],
      "stateMutability": "view",
      "type": "function"
    },
    {
      "inputs": [
        {
          "internalType": "address",
          "name": "targetAddress",
          "type": "address"
        }
      ],
      "name": "heal",
      "outputs": [],
      "stateMutability": "nonpayable",
      "type": "function"
    },
    {
      "inputs": [
        {
          "internalType": "address",
          "name": "owner",
          "type": "address"
        },
        {
          "internalType": "address",
          "name": "operator",
          "type": "address"
        }
      ],
      "name": "isApprovedForAll",
      "outputs": [
        {
          "internalType": "bool",
          "name": "",
          "type": "bool"
        }
      ],
      "stateMutability": "view",
      "type": "function"
    },
    {
      "inputs": [
        {
          "internalType": "uint256",
          "name": "_characterIndex",
          "type": "uint256"
        }
      ],
      "name": "mintCharacterNFT",
      "outputs": [],
      "stateMutability": "nonpayable",
      "type": "function"
    },
    {
      "inputs": [],
      "name": "name",
      "outputs": [
        {
          "internalType": "string",
          "name": "",
          "type": "string"
        }
      ],
      "stateMutability": "view",
      "type": "function"
    },
    {
      "inputs": [
        {
          "internalType": "uint256",
          "name": "",
          "type": "uint256"
        }
      ],
      "name": "nftHolderAttributes",
      "outputs": [
        {
          "internalType": "uint256",
          "name": "characterIndex",
          "type": "uint256"
        },
        {
          "internalType": "string",
          "name": "name",
          "type": "string"
        },
        {
          "internalType": "string",
          "name": "imageURI",
          "type": "string"
        },
        {
          "internalType": "uint256",
          "name": "hp",
          "type": "uint256"
        },
        {
          "internalType": "uint256",
          "name": "maxHp",
          "type": "uint256"
        },
        {
          "internalType": "uint256",
          "name": "attackDamage",
          "type": "uint256"
        },
        {
          "internalType": "uint256",
          "name": "healingPower",
          "type": "uint256"
        }
      ],
      "stateMutability": "view",
      "type": "function"
    },
    {
      "inputs": [
        {
          "internalType": "address",
          "name": "",
          "type": "address"
        }
      ],
      "name": "nftHolders",
      "outputs": [
        {
          "internalType": "uint256",
          "name": "",
          "type": "uint256"
        }
      ],
      "stateMutability": "view",
      "type": "function"
    },
    {
      "inputs": [
        {
          "internalType": "uint256",
          "name": "tokenId",
          "type": "uint256"
        }
      ],
      "name": "ownerOf",
      "outputs": [
        {
          "internalType": "address",
          "name": "",
          "type": "address"
        }
      ],
      "stateMutability": "view",
      "type": "function"
    },
    {
      "inputs": [
        {
          "internalType": "address",
          "name": "from",
          "type": "address"
        },
        {
          "internalType": "address",
          "name": "to",
          "type": "address"
        },
        {
          "internalType": "uint256",
          "name": "tokenId",
          "type": "uint256"
        }
      ],
      "name": "safeTransferFrom",
      "outputs": [],
      "stateMutability": "nonpayable",
      "type": "function"
    },
    {
      "inputs": [
        {
          "internalType": "address",
          "name": "from",
          "type": "address"
        },
        {
          "internalType": "address",
          "name": "to",
          "type": "address"
        },
        {
          "internalType": "uint256",
          "name": "tokenId",
          "type": "uint256"
        },
        {
          "internalType": "bytes",
          "name": "_data",
          "type": "bytes"
        }
      ],
      "name": "safeTransferFrom",
      "outputs": [],
      "stateMutability": "nonpayable",
      "type": "function"
    },
    {
      "inputs": [
        {
          "internalType": "address",
          "name": "operator",
          "type": "address"
        },
        {
          "internalType": "bool",
          "name": "approved",
          "type": "bool"
        }
      ],
      "name": "setApprovalForAll",
      "outputs": [],
      "stateMutability": "nonpayable",
      "type": "function"
    },
    {
      "inputs": [
        {
          "internalType": "bytes4",
          "name": "interfaceId",
          "type": "bytes4"
        }
      ],
      "name": "supportsInterface",
      "outputs": [
        {
          "internalType": "bool",
          "name": "",
          "type": "bool"
        }
      ],
      "stateMutability": "view",
      "type": "function"
    },
    {
      "inputs": [],
      "name": "symbol",
      "outputs": [
        {
          "internalType": "string",
          "name": "",
          "type": "string"
        }
      ],
      "stateMutability": "view",
      "type": "function"
    },
    {
      "inputs": [
        {
          "internalType": "uint256",
          "name": "_tokenId",
          "type": "uint256"
        }
      ],
      "name": "tokenURI",
      "outputs": [
        {
          "internalType": "string",
          "name": "",
          "type": "string"
        }
      ],
      "stateMutability": "view",
      "type": "function"
    },
    {
      "inputs": [],
      "name": "totalNFTHolders",
      "outputs": [
        {
          "internalType": "uint256",
          "name": "",
          "type": "uint256"
        }
      ],
      "stateMutability": "view",
      "type": "function"
    },
    {
      "inputs": [
        {
          "internalType": "address",
          "name": "from",
          "type": "address"
        },
        {
          "internalType": "address",
          "name": "to",
          "type": "address"
        },
        {
          "internalType": "uint256",
          "name": "tokenId",
          "type": "uint256"
        }
      ],
      "name": "transferFrom",
      "outputs": [],
      "stateMutability": "nonpayable",
      "type": "function"
    }
  ],
  "bytecode": "0x60806040523480156200001157600080fd5b5060405162005bb038038062005bb08339818101604052810190620000379190620008d4565b6040518060400160405280600c81526020017f4368726973746d617365727300000000000000000000000000000000000000008152506040518060400160405280600481526020017f43524d53000000000000000000000000000000000000000000000000000000008152508160009080519060200190620000bb92919062000667565b508060019080519060200190620000d492919062000667565b50505060005b85518110156200054e5760086040518060e0016040528083815260200188848151811062000131577f4e487b7100000000000000000000000000000000000000000000000000000000600052603260045260246000fd5b6020026020010151815260200187848151811062000178577f4e487b7100000000000000000000000000000000000000000000000000000000600052603260045260246000fd5b60200260200101518152602001868481518110620001bf577f4e487b7100000000000000000000000000000000000000000000000000000000600052603260045260246000fd5b6020026020010151815260200186848151811062000206577f4e487b7100000000000000000000000000000000000000000000000000000000600052603260045260246000fd5b602002602001015181526020018584815181106200024d577f4e487b7100000000000000000000000000000000000000000000000000000000600052603260045260246000fd5b6020026020010151815260200184848151811062000294577f4e487b7100000000000000000000000000000000000000000000000000000000600052603260045260246000fd5b60200260200101518152509080600181540180825580915050600190039060005260206000209060070201600090919091909150600082015181600001556020820151816001019080519060200190620002f092919062000667565b5060408201518160020190805190602001906200030f92919062000667565b50606082015181600301556080820151816004015560a0820151816005015560c08201518160060155505060006008828154811062000377577f4e487b7100000000000000000000000000000000000000000000000000000000600052603260045260246000fd5b90600052602060002090600702016040518060e001604052908160008201548152602001600182018054620003ac9062000c05565b80601f0160208091040260200160405190810160405280929190818152602001828054620003da9062000c05565b80156200042b5780601f10620003ff576101008083540402835291602001916200042b565b820191906000526020600020905b8154815290600101906020018083116200040d57829003601f168201915b50505050508152602001600282018054620004469062000c05565b80601f0160208091040260200160405190810160405280929190818152602001828054620004749062000c05565b8015620004c55780601f106200049957610100808354040283529160200191620004c5565b820191906000526020600020905b815481529060010190602001808311620004a757829003601f168201915b5050505050815260200160038201548152602001600482015481526020016005820154815260200160068201548152505090506200053660405180606001604052806025815260200162005b8b602591398260200151836060015184604001516200057c60201b620020f21760201c565b5060018162000546919062000b68565b9050620000da565b506361c75c206007819055506200057160066200062860201b620021941760201c565b505050505062000cf3565b620006228484848460405160240162000599949392919062000a25565b6040516020818303038152906040527f8d142cdd000000000000000000000000000000000000000000000000000000007bffffffffffffffffffffffffffffffffffffffffffffffffffffffff19166020820180517bffffffffffffffffffffffffffffffffffffffffffffffffffffffff83818316178352505050506200063e60201b60201c565b50505050565b6001816000016000828254019250508190555050565b60008151905060006a636f6e736f6c652e6c6f679050602083016000808483855afa5050505050565b828054620006759062000c05565b90600052602060002090601f016020900481019282620006995760008555620006e5565b82601f10620006b457805160ff1916838001178555620006e5565b82800160010185558215620006e5579182015b82811115620006e4578251825591602001919060010190620006c7565b5b509050620006f49190620006f8565b5090565b5b8082111562000713576000816000905550600101620006f9565b5090565b60006200072e620007288462000abb565b62000a87565b9050808382526020820190508260005b8581101562000772578151850162000757888262000890565b8452602084019350602083019250506001810190506200073e565b5050509392505050565b6000620007936200078d8462000aea565b62000a87565b90508083825260208201905082856020860282011115620007b357600080fd5b60005b85811015620007e75781620007cc8882620008bd565b845260208401935060208301925050600181019050620007b6565b5050509392505050565b600062000808620008028462000b19565b62000a87565b9050828152602081018484840111156200082157600080fd5b6200082e84828562000bcf565b509392505050565b600082601f8301126200084857600080fd5b81516200085a84826020860162000717565b91505092915050565b600082601f8301126200087557600080fd5b8151620008878482602086016200077c565b91505092915050565b600082601f830112620008a257600080fd5b8151620008b4848260208601620007f1565b91505092915050565b600081519050620008ce8162000cd9565b92915050565b600080600080600060a08688031215620008ed57600080fd5b600086015167ffffffffffffffff8111156200090857600080fd5b620009168882890162000836565b955050602086015167ffffffffffffffff8111156200093457600080fd5b620009428882890162000836565b945050604086015167ffffffffffffffff8111156200096057600080fd5b6200096e8882890162000863565b935050606086015167ffffffffffffffff8111156200098c57600080fd5b6200099a8882890162000863565b925050608086015167ffffffffffffffff811115620009b857600080fd5b620009c68882890162000863565b9150509295509295909350565b6000620009e08262000b4c565b620009ec818562000b57565b9350620009fe81856020860162000bcf565b62000a098162000cc8565b840191505092915050565b62000a1f8162000bc5565b82525050565b6000608082019050818103600083015262000a418187620009d3565b9050818103602083015262000a578186620009d3565b905062000a68604083018562000a14565b818103606083015262000a7c8184620009d3565b905095945050505050565b6000604051905081810181811067ffffffffffffffff8211171562000ab15762000ab062000c99565b5b8060405250919050565b600067ffffffffffffffff82111562000ad95762000ad862000c99565b5b602082029050602081019050919050565b600067ffffffffffffffff82111562000b085762000b0762000c99565b5b602082029050602081019050919050565b600067ffffffffffffffff82111562000b375762000b3662000c99565b5b601f19601f8301169050602081019050919050565b600081519050919050565b600082825260208201905092915050565b600062000b758262000bc5565b915062000b828362000bc5565b9250827fffffffffffffffffffffffffffffffffffffffffffffffffffffffffffffffff0382111562000bba5762000bb962000c3b565b5b828201905092915050565b6000819050919050565b60005b8381101562000bef57808201518184015260208101905062000bd2565b8381111562000bff576000848401525b50505050565b6000600282049050600182168062000c1e57607f821691505b6020821081141562000c355762000c3462000c6a565b5b50919050565b7f4e487b7100000000000000000000000000000000000000000000000000000000600052601160045260246000fd5b7f4e487b7100000000000000000000000000000000000000000000000000000000600052602260045260246000fd5b7f4e487b7100000000000000000000000000000000000000000000000000000000600052604160045260246000fd5b6000601f19601f8301169050919050565b62000ce48162000bc5565b811462000cf057600080fd5b50565b614e888062000d036000396000f3fe608060405234801561001057600080fd5b506004361061014d5760003560e01c80637df124a1116100c3578063c87b56dd1161007c578063c87b56dd146103ca578063d018db3e146103fa578063e0cd1d6914610416578063e985e9c514610432578063efa1c48214610462578063f8b81ef7146104805761014d565b80637df124a1146102f057806395d89b411461032057806398da4c951461033e578063a22cb46514610374578063b88d4fde14610390578063b953084e146103ac5761014d565b806323b872dd1161011557806323b872dd1461021c578063241f0bfa1461023857806342842e0e1461025657806352f15b43146102725780636352211e1461029057806370a08231146102c05761014d565b806301ffc9a714610152578063025132541461018257806306fdde03146101b2578063081812fc146101d0578063095ea7b314610200575b600080fd5b61016c60048036038101906101679190613446565b61049c565b60405161017991906143a6565b60405180910390f35b61019c6004803603810190610197919061329f565b61057e565b6040516101a99190614791565b60405180910390f35b6101ba610762565b6040516101c791906143c1565b60405180910390f35b6101ea60048036038101906101e59190613498565b6107f4565b6040516101f791906142c4565b60405180910390f35b61021a6004803603810190610215919061340a565b610879565b005b61023660048036038101906102319190613304565b610991565b005b6102406109f1565b60405161024d91906147b3565b60405180910390f35b610270600480360381019061026b9190613304565b6109f7565b005b61027a610a17565b60405161028791906147b3565b60405180910390f35b6102aa60048036038101906102a59190613498565b610a1d565b6040516102b791906142c4565b60405180910390f35b6102da60048036038101906102d5919061329f565b610acf565b6040516102e791906147b3565b60405180910390f35b61030a6004803603810190610305919061329f565b610b87565b60405161031791906147b3565b60405180910390f35b610328610b9f565b60405161033591906143c1565b60405180910390f35b61035860048036038101906103539190613498565b610c31565b60405161036b97969594939291906147ce565b60405180910390f35b61038e600480360381019061038991906133ce565b610d83565b005b6103aa60048036038101906103a59190613353565b610f04565b005b6103b4610f66565b6040516103c19190614384565b60405180910390f35b6103e460048036038101906103df9190613498565b61111b565b6040516103f191906143c1565b60405180910390f35b610414600480360381019061040f919061329f565b611354565b005b610430600480360381019061042b919061329f565b611791565b005b61044c600480360381019061044791906132c8565b611b1e565b60405161045991906143a6565b60405180910390f35b61046a611bb2565b6040516104779190614362565b60405180910390f35b61049a60048036038101906104959190613498565b611c40565b005b60007f80ac58cd000000000000000000000000000000000000000000000000000000007bffffffffffffffffffffffffffffffffffffffffffffffffffffffff1916827bffffffffffffffffffffffffffffffffffffffffffffffffffffffff1916148061056757507f5b5e139f000000000000000000000000000000000000000000000000000000007bffffffffffffffffffffffffffffffffffffffffffffffffffffffff1916827bffffffffffffffffffffffffffffffffffffffffffffffffffffffff1916145b806105775750610576826121aa565b5b9050919050565b6105866130ee565b6000600a60008473ffffffffffffffffffffffffffffffffffffffff1673ffffffffffffffffffffffffffffffffffffffff168152602001908152602001600020549050600081111561074f57600960008281526020019081526020016000206040518060e00160405290816000820154815260200160018201805461060b90614b66565b80601f016020809104026020016040519081016040528092919081815260200182805461063790614b66565b80156106845780601f1061065957610100808354040283529160200191610684565b820191906000526020600020905b81548152906001019060200180831161066757829003601f168201915b5050505050815260200160028201805461069d90614b66565b80601f01602080910402602001604051908101604052809291908181526020018280546106c990614b66565b80156107165780601f106106eb57610100808354040283529160200191610716565b820191906000526020600020905b8154815290600101906020018083116106f957829003601f168201915b5050505050815260200160038201548152602001600482015481526020016005820154815260200160068201548152505091505061075d565b6107576130ee565b80925050505b919050565b60606000805461077190614b66565b80601f016020809104026020016040519081016040528092919081815260200182805461079d90614b66565b80156107ea5780601f106107bf576101008083540402835291602001916107ea565b820191906000526020600020905b8154815290600101906020018083116107cd57829003601f168201915b5050505050905090565b60006107ff82612214565b61083e576040517f08c379a000000000000000000000000000000000000000000000000000000000815260040161083590614711565b60405180910390fd5b6004600083815260200190815260200160002060009054906101000a900473ffffffffffffffffffffffffffffffffffffffff169050919050565b600061088482610a1d565b90508073ffffffffffffffffffffffffffffffffffffffff168373ffffffffffffffffffffffffffffffffffffffff1614156108f5576040517f08c379a00000000000000000000000000000000000000000000000000000000081526004016108ec90614751565b60405180910390fd5b8073ffffffffffffffffffffffffffffffffffffffff16610914612280565b73ffffffffffffffffffffffffffffffffffffffff16148061094357506109428161093d612280565b611b1e565b5b610982576040517f08c379a000000000000000000000000000000000000000000000000000000000815260040161097990614671565b60405180910390fd5b61098c8383612288565b505050565b6109a261099c612280565b82612341565b6109e1576040517f08c379a00000000000000000000000000000000000000000000000000000000081526004016109d890614771565b60405180910390fd5b6109ec83838361241f565b505050565b60075481565b610a1283838360405180602001604052806000815250610f04565b505050565b600b5481565b6000806002600084815260200190815260200160002060009054906101000a900473ffffffffffffffffffffffffffffffffffffffff169050600073ffffffffffffffffffffffffffffffffffffffff168173ffffffffffffffffffffffffffffffffffffffff161415610ac6576040517f08c379a0000000000000000000000000000000000000000000000000000000008152600401610abd906146b1565b60405180910390fd5b80915050919050565b60008073ffffffffffffffffffffffffffffffffffffffff168273ffffffffffffffffffffffffffffffffffffffff161415610b40576040517f08c379a0000000000000000000000000000000000000000000000000000000008152600401610b3790614691565b60405180910390fd5b600360008373ffffffffffffffffffffffffffffffffffffffff1673ffffffffffffffffffffffffffffffffffffffff168152602001908152602001600020549050919050565b600a6020528060005260406000206000915090505481565b606060018054610bae90614b66565b80601f0160208091040260200160405190810160405280929190818152602001828054610bda90614b66565b8015610c275780601f10610bfc57610100808354040283529160200191610c27565b820191906000526020600020905b815481529060010190602001808311610c0a57829003601f168201915b5050505050905090565b6009602052806000526040600020600091509050806000015490806001018054610c5a90614b66565b80601f0160208091040260200160405190810160405280929190818152602001828054610c8690614b66565b8015610cd35780601f10610ca857610100808354040283529160200191610cd3565b820191906000526020600020905b815481529060010190602001808311610cb657829003601f168201915b505050505090806002018054610ce890614b66565b80601f0160208091040260200160405190810160405280929190818152602001828054610d1490614b66565b8015610d615780601f10610d3657610100808354040283529160200191610d61565b820191906000526020600020905b815481529060010190602001808311610d4457829003601f168201915b5050505050908060030154908060040154908060050154908060060154905087565b610d8b612280565b73ffffffffffffffffffffffffffffffffffffffff168273ffffffffffffffffffffffffffffffffffffffff161415610df9576040517f08c379a0000000000000000000000000000000000000000000000000000000008152600401610df0906145d1565b60405180910390fd5b8060056000610e06612280565b73ffffffffffffffffffffffffffffffffffffffff1673ffffffffffffffffffffffffffffffffffffffff16815260200190815260200160002060008473ffffffffffffffffffffffffffffffffffffffff1673ffffffffffffffffffffffffffffffffffffffff16815260200190815260200160002060006101000a81548160ff0219169083151502179055508173ffffffffffffffffffffffffffffffffffffffff16610eb3612280565b73ffffffffffffffffffffffffffffffffffffffff167f17307eab39ab6107e8899845ad3d59bd9653f200f220920489ca2b5937696c3183604051610ef891906143a6565b60405180910390a35050565b610f15610f0f612280565b83612341565b610f54576040517f08c379a0000000000000000000000000000000000000000000000000000000008152600401610f4b90614771565b60405180910390fd5b610f608484848461267b565b50505050565b60606008805480602002602001604051908101604052809291908181526020016000905b8282101561111257838290600052602060002090600702016040518060e001604052908160008201548152602001600182018054610fc790614b66565b80601f0160208091040260200160405190810160405280929190818152602001828054610ff390614b66565b80156110405780601f1061101557610100808354040283529160200191611040565b820191906000526020600020905b81548152906001019060200180831161102357829003601f168201915b5050505050815260200160028201805461105990614b66565b80601f016020809104026020016040519081016040528092919081815260200182805461108590614b66565b80156110d25780601f106110a7576101008083540402835291602001916110d2565b820191906000526020600020905b8154815290600101906020018083116110b557829003601f168201915b5050505050815260200160038201548152602001600482015481526020016005820154815260200160068201548152505081526020019060010190610f8a565b50505050905090565b60606000600960008481526020019081526020016000206040518060e00160405290816000820154815260200160018201805461115790614b66565b80601f016020809104026020016040519081016040528092919081815260200182805461118390614b66565b80156111d05780601f106111a5576101008083540402835291602001916111d0565b820191906000526020600020905b8154815290600101906020018083116111b357829003601f168201915b505050505081526020016002820180546111e990614b66565b80601f016020809104026020016040519081016040528092919081815260200182805461121590614b66565b80156112625780601f1061123757610100808354040283529160200191611262565b820191906000526020600020905b81548152906001019060200180831161124557829003601f168201915b50505050508152602001600382015481526020016004820154815260200160058201548152602001600682015481525050905060006112a482606001516126d7565b905060006112b583608001516126d7565b905060006112c68460a001516126d7565b905060006112d78560c001516126d7565b9050600061131f86602001516112ec8a6126d7565b88604001518888888860405160200161130b97969594939291906141e5565b604051602081830303815290604052612884565b905060008160405160200161133491906142a2565b604051602081830303815290604052905080975050505050505050919050565b60004290506113d16040518060400160405280600781526020017f74696d6520697300000000000000000000000000000000000000000000000000815250826040518060400160405280600981526020017f646561646c696e65200000000000000000000000000000000000000000000000815250600754612a42565b6007548110611415576040517f08c379a000000000000000000000000000000000000000000000000000000000815260040161140c90614551565b60405180910390fd5b6000600a60008473ffffffffffffffffffffffffffffffffffffffff1673ffffffffffffffffffffffffffffffffffffffff16815260200190815260200160002054905060006009600083815260200190815260200160002090506000600a60003373ffffffffffffffffffffffffffffffffffffffff1673ffffffffffffffffffffffffffffffffffffffff16815260200190815260200160002054905060006009600083815260200190815260200160002090506115836040518060600160405280603c8152602001614e17603c91398260010180546114f690614b66565b80601f016020809104026020016040519081016040528092919081815260200182805461152290614b66565b801561156f5780601f106115445761010080835404028352916020019161156f565b820191906000526020600020905b81548152906001019060200180831161155257829003601f168201915b505050505083600301548460050154612ae4565b6116586040518060400160405280601d81526020017f5461726765742025732068617320257320485020616e642025732041440000008152508460010180546115cb90614b66565b80601f01602080910402602001604051908101604052809291908181526020018280546115f790614b66565b80156116445780601f1061161957610100808354040283529160200191611644565b820191906000526020600020905b81548152906001019060200180831161162757829003601f168201915b505050505085600301548660050154612ae4565b600081600301541161169f576040517f08c379a000000000000000000000000000000000000000000000000000000000815260040161169690614631565b60405180910390fd5b60008360030154116116e6576040517f08c379a00000000000000000000000000000000000000000000000000000000081526004016116dd906146d1565b60405180910390fd5b8060050154836003015410156117055760008360030181905550611722565b806005015483600301546117199190614a7c565b83600301819055505b611748604051806060016040528060298152602001614d3c602991398460030154612b86565b7f838ab28464562786a6c4ab2311964b82fa60bd9b14aa7e856af1f3f18d41a4148360030154826003015460405161178192919061484b565b60405180910390a1505050505050565b6000600a60008373ffffffffffffffffffffffffffffffffffffffff1673ffffffffffffffffffffffffffffffffffffffff16815260200190815260200160002054905060006009600083815260200190815260200160002090506000600a60003373ffffffffffffffffffffffffffffffffffffffff1673ffffffffffffffffffffffffffffffffffffffff16815260200190815260200160002054905060006009600083815260200190815260200160002090506118ff604051806080016040528060448152602001614da56044913982600101805461187290614b66565b80601f016020809104026020016040519081016040528092919081815260200182805461189e90614b66565b80156118eb5780601f106118c0576101008083540402835291602001916118eb565b820191906000526020600020905b8154815290600101906020018083116118ce57829003601f168201915b505050505083600301548460060154612ae4565b6119d46040518060400160405280601381526020017f546172676574202573206861732025732048500000000000000000000000000081525084600101805461194790614b66565b80601f016020809104026020016040519081016040528092919081815260200182805461197390614b66565b80156119c05780601f10611995576101008083540402835291602001916119c0565b820191906000526020600020905b8154815290600101906020018083116119a357829003601f168201915b505050505085600301548660060154612ae4565b6000816003015411611a1b576040517f08c379a0000000000000000000000000000000000000000000000000000000008152600401611a1290614651565b60405180910390fd5b6000836003015411611a62576040517f08c379a0000000000000000000000000000000000000000000000000000000008152600401611a59906145f1565b60405180910390fd5b806006015483600301548460040154611a7b9190614a7c565b1015611a935782600401548360030181905550611ab0565b80600601548360030154611aa7919061499b565b83600301819055505b611ad6604051806060016040528060298152602001614d3c602991398460030154612b86565b7fbe48ddc4757287d79e6453c381ab1b1a1c1d18a4fdcf61bde378de226024f22c83600301548260030154604051611b0f92919061484b565b60405180910390a15050505050565b6000600560008473ffffffffffffffffffffffffffffffffffffffff1673ffffffffffffffffffffffffffffffffffffffff16815260200190815260200160002060008373ffffffffffffffffffffffffffffffffffffffff1673ffffffffffffffffffffffffffffffffffffffff16815260200190815260200160002060009054906101000a900460ff16905092915050565b6060600c805480602002602001604051908101604052809291908181526020018280548015611c3657602002820191906000526020600020905b8160009054906101000a900473ffffffffffffffffffffffffffffffffffffffff1673ffffffffffffffffffffffffffffffffffffffff1681526020019060010190808311611bec575b5050505050905090565b6000611c4c6006612c22565b9050611c583382612c30565b6040518060e0016040528083815260200160088481548110611ca3577f4e487b7100000000000000000000000000000000000000000000000000000000600052603260045260246000fd5b90600052602060002090600702016001018054611cbf90614b66565b80601f0160208091040260200160405190810160405280929190818152602001828054611ceb90614b66565b8015611d385780601f10611d0d57610100808354040283529160200191611d38565b820191906000526020600020905b815481529060010190602001808311611d1b57829003601f168201915b5050505050815260200160088481548110611d7c577f4e487b7100000000000000000000000000000000000000000000000000000000600052603260045260246000fd5b90600052602060002090600702016002018054611d9890614b66565b80601f0160208091040260200160405190810160405280929190818152602001828054611dc490614b66565b8015611e115780601f10611de657610100808354040283529160200191611e11565b820191906000526020600020905b815481529060010190602001808311611df457829003601f168201915b5050505050815260200160088481548110611e55577f4e487b7100000000000000000000000000000000000000000000000000000000600052603260045260246000fd5b906000526020600020906007020160030154815260200160088481548110611ea6577f4e487b7100000000000000000000000000000000000000000000000000000000600052603260045260246000fd5b906000526020600020906007020160040154815260200160088481548110611ef7577f4e487b7100000000000000000000000000000000000000000000000000000000600052603260045260246000fd5b906000526020600020906007020160050154815260200160088481548110611f48577f4e487b7100000000000000000000000000000000000000000000000000000000600052603260045260246000fd5b90600052602060002090600702016006015481525060096000838152602001908152602001600020600082015181600001556020820151816001019080519060200190611f9692919061312b565b506040820151816002019080519060200190611fb392919061312b565b50606082015181600301556080820151816004015560a0820151816005015560c082015181600601559050506120026040518060600160405280602e8152602001614de9602e91398284612c4e565b80600a60003373ffffffffffffffffffffffffffffffffffffffff1673ffffffffffffffffffffffffffffffffffffffff16815260200190815260200160002081905550600c339080600181540180825580915050600190039060005260206000200160009091909190916101000a81548173ffffffffffffffffffffffffffffffffffffffff021916908373ffffffffffffffffffffffffffffffffffffffff1602179055506120b36006612194565b7f4bc303fd457a97b4691b9af582ce71868a3d258638c8d4f8c60988a0f0bfb8cd3382846040516120e69392919061432b565b60405180910390a15050565b61218e8484848460405160240161210c94939291906143e3565b6040516020818303038152906040527f8d142cdd000000000000000000000000000000000000000000000000000000007bffffffffffffffffffffffffffffffffffffffffffffffffffffffff19166020820180517bffffffffffffffffffffffffffffffffffffffffffffffffffffffff8381831617835250505050612ced565b50505050565b6001816000016000828254019250508190555050565b60007f01ffc9a7000000000000000000000000000000000000000000000000000000007bffffffffffffffffffffffffffffffffffffffffffffffffffffffff1916827bffffffffffffffffffffffffffffffffffffffffffffffffffffffff1916149050919050565b60008073ffffffffffffffffffffffffffffffffffffffff166002600084815260200190815260200160002060009054906101000a900473ffffffffffffffffffffffffffffffffffffffff1673ffffffffffffffffffffffffffffffffffffffff1614159050919050565b600033905090565b816004600083815260200190815260200160002060006101000a81548173ffffffffffffffffffffffffffffffffffffffff021916908373ffffffffffffffffffffffffffffffffffffffff160217905550808273ffffffffffffffffffffffffffffffffffffffff166122fb83610a1d565b73ffffffffffffffffffffffffffffffffffffffff167f8c5be1e5ebec7d5bd14f71427d1e84f3dd0314c0f7b2291e5b200ac8c7c3b92560405160405180910390a45050565b600061234c82612214565b61238b576040517f08c379a000000000000000000000000000000000000000000000000000000000815260040161238290614611565b60405180910390fd5b600061239683610a1d565b90508073ffffffffffffffffffffffffffffffffffffffff168473ffffffffffffffffffffffffffffffffffffffff16148061240557508373ffffffffffffffffffffffffffffffffffffffff166123ed846107f4565b73ffffffffffffffffffffffffffffffffffffffff16145b8061241657506124158185611b1e565b5b91505092915050565b8273ffffffffffffffffffffffffffffffffffffffff1661243f82610a1d565b73ffffffffffffffffffffffffffffffffffffffff1614612495576040517f08c379a000000000000000000000000000000000000000000000000000000000815260040161248c90614731565b60405180910390fd5b600073ffffffffffffffffffffffffffffffffffffffff168273ffffffffffffffffffffffffffffffffffffffff161415612505576040517f08c379a00000000000000000000000000000000000000000000000000000000081526004016124fc906145b1565b60405180910390fd5b612510838383612d16565b61251b600082612288565b6001600360008573ffffffffffffffffffffffffffffffffffffffff1673ffffffffffffffffffffffffffffffffffffffff168152602001908152602001600020600082825461256b9190614a7c565b925050819055506001600360008473ffffffffffffffffffffffffffffffffffffffff1673ffffffffffffffffffffffffffffffffffffffff16815260200190815260200160002060008282546125c2919061499b565b92505081905550816002600083815260200190815260200160002060006101000a81548173ffffffffffffffffffffffffffffffffffffffff021916908373ffffffffffffffffffffffffffffffffffffffff160217905550808273ffffffffffffffffffffffffffffffffffffffff168473ffffffffffffffffffffffffffffffffffffffff167fddf252ad1be2c89b69c2b068fc378daa952ba7f163c4a11628f55a4df523b3ef60405160405180910390a4505050565b61268684848461241f565b61269284848484612d1b565b6126d1576040517f08c379a00000000000000000000000000000000000000000000000000000000081526004016126c890614571565b60405180910390fd5b50505050565b6060600082141561271f576040518060400160405280600181526020017f3000000000000000000000000000000000000000000000000000000000000000815250905061287f565b600082905060005b6000821461275157808061273a90614b98565b915050600a8261274a91906149f1565b9150612727565b60008167ffffffffffffffff811115612793577f4e487b7100000000000000000000000000000000000000000000000000000000600052604160045260246000fd5b6040519080825280601f01601f1916602001820160405280156127c55781602001600182028036833780820191505090505b5090505b60008514612878576001826127de9190614a7c565b9150600a856127ed9190614be1565b60306127f9919061499b565b60f81b818381518110612835577f4e487b7100000000000000000000000000000000000000000000000000000000600052603260045260246000fd5b60200101907effffffffffffffffffffffffffffffffffffffffffffffffffffffffffffff1916908160001a905350600a8561287191906149f1565b94506127c9565b8093505050505b919050565b606060008251905060008114156128ad5760405180602001604052806000815250915050612a3d565b600060036002836128be919061499b565b6128c891906149f1565b60046128d49190614a22565b905060006020826128e5919061499b565b67ffffffffffffffff811115612924577f4e487b7100000000000000000000000000000000000000000000000000000000600052604160045260246000fd5b6040519080825280601f01601f1916602001820160405280156129565781602001600182028036833780820191505090505b5090506000604051806060016040528060408152602001614d65604091399050600181016020830160005b868110156129fa5760038101905062ffffff818a015116603f8160121c168401518060081b905060ff603f83600c1c1686015116810190508060081b905060ff603f8360061c1686015116810190508060081b905060ff603f831686015116810190508060e01b90508084526004840193505050612981565b506003860660018114612a145760028114612a2457612a2f565b613d3d60f01b6002830352612a2f565b603d60f81b60018303525b508484525050819450505050505b919050565b612ade84848484604051602401612a5c94939291906144c0565b6040516020818303038152906040527fa0c4b225000000000000000000000000000000000000000000000000000000007bffffffffffffffffffffffffffffffffffffffffffffffffffffffff19166020820180517bffffffffffffffffffffffffffffffffffffffffffffffffffffffff8381831617835250505050612ced565b50505050565b612b8084848484604051602401612afe949392919061443d565b6040516020818303038152906040527fd5cf17d0000000000000000000000000000000000000000000000000000000007bffffffffffffffffffffffffffffffffffffffffffffffffffffffff19166020820180517bffffffffffffffffffffffffffffffffffffffffffffffffffffffff8381831617835250505050612ced565b50505050565b612c1e8282604051602401612b9c929190614490565b6040516020818303038152906040527f9710a9d0000000000000000000000000000000000000000000000000000000007bffffffffffffffffffffffffffffffffffffffffffffffffffffffff19166020820180517bffffffffffffffffffffffffffffffffffffffffffffffffffffffff8381831617835250505050612ced565b5050565b600081600001549050919050565b612c4a828260405180602001604052806000815250612eb2565b5050565b612ce8838383604051602401612c6693929190614513565b6040516020818303038152906040527f969cdd03000000000000000000000000000000000000000000000000000000007bffffffffffffffffffffffffffffffffffffffffffffffffffffffff19166020820180517bffffffffffffffffffffffffffffffffffffffffffffffffffffffff8381831617835250505050612ced565b505050565b60008151905060006a636f6e736f6c652e6c6f679050602083016000808483855afa5050505050565b505050565b6000612d3c8473ffffffffffffffffffffffffffffffffffffffff16612f0d565b15612ea5578373ffffffffffffffffffffffffffffffffffffffff1663150b7a02612d65612280565b8786866040518563ffffffff1660e01b8152600401612d8794939291906142df565b602060405180830381600087803b158015612da157600080fd5b505af1925050508015612dd257506040513d601f19601f82011682018060405250810190612dcf919061346f565b60015b612e55573d8060008114612e02576040519150601f19603f3d011682016040523d82523d6000602084013e612e07565b606091505b50600081511415612e4d576040517f08c379a0000000000000000000000000000000000000000000000000000000008152600401612e4490614571565b60405180910390fd5b805181602001fd5b63150b7a0260e01b7bffffffffffffffffffffffffffffffffffffffffffffffffffffffff1916817bffffffffffffffffffffffffffffffffffffffffffffffffffffffff191614915050612eaa565b600190505b949350505050565b612ebc8383612f20565b612ec96000848484612d1b565b612f08576040517f08c379a0000000000000000000000000000000000000000000000000000000008152600401612eff90614571565b60405180910390fd5b505050565b600080823b905060008111915050919050565b600073ffffffffffffffffffffffffffffffffffffffff168273ffffffffffffffffffffffffffffffffffffffff161415612f90576040517f08c379a0000000000000000000000000000000000000000000000000000000008152600401612f87906146f1565b60405180910390fd5b612f9981612214565b15612fd9576040517f08c379a0000000000000000000000000000000000000000000000000000000008152600401612fd090614591565b60405180910390fd5b612fe560008383612d16565b6001600360008473ffffffffffffffffffffffffffffffffffffffff1673ffffffffffffffffffffffffffffffffffffffff1681526020019081526020016000206000828254613035919061499b565b92505081905550816002600083815260200190815260200160002060006101000a81548173ffffffffffffffffffffffffffffffffffffffff021916908373ffffffffffffffffffffffffffffffffffffffff160217905550808273ffffffffffffffffffffffffffffffffffffffff16600073ffffffffffffffffffffffffffffffffffffffff167fddf252ad1be2c89b69c2b068fc378daa952ba7f163c4a11628f55a4df523b3ef60405160405180910390a45050565b6040518060e00160405280600081526020016060815260200160608152602001600081526020016000815260200160008152602001600081525090565b82805461313790614b66565b90600052602060002090601f01602090048101928261315957600085556131a0565b82601f1061317257805160ff19168380011785556131a0565b828001600101855582156131a0579182015b8281111561319f578251825591602001919060010190613184565b5b5090506131ad91906131b1565b5090565b5b808211156131ca5760008160009055506001016131b2565b5090565b60006131e16131dc846148a5565b614874565b9050828152602081018484840111156131f957600080fd5b613204848285614b24565b509392505050565b60008135905061321b81614cdf565b92915050565b60008135905061323081614cf6565b92915050565b60008135905061324581614d0d565b92915050565b60008151905061325a81614d0d565b92915050565b600082601f83011261327157600080fd5b81356132818482602086016131ce565b91505092915050565b60008135905061329981614d24565b92915050565b6000602082840312156132b157600080fd5b60006132bf8482850161320c565b91505092915050565b600080604083850312156132db57600080fd5b60006132e98582860161320c565b92505060206132fa8582860161320c565b9150509250929050565b60008060006060848603121561331957600080fd5b60006133278682870161320c565b93505060206133388682870161320c565b92505060406133498682870161328a565b9150509250925092565b6000806000806080858703121561336957600080fd5b60006133778782880161320c565b94505060206133888782880161320c565b93505060406133998782880161328a565b925050606085013567ffffffffffffffff8111156133b657600080fd5b6133c287828801613260565b91505092959194509250565b600080604083850312156133e157600080fd5b60006133ef8582860161320c565b925050602061340085828601613221565b9150509250929050565b6000806040838503121561341d57600080fd5b600061342b8582860161320c565b925050602061343c8582860161328a565b9150509250929050565b60006020828403121561345857600080fd5b600061346684828501613236565b91505092915050565b60006020828403121561348157600080fd5b600061348f8482850161324b565b91505092915050565b6000602082840312156134aa57600080fd5b60006134b88482850161328a565b91505092915050565b60006134cd83836134ed565b60208301905092915050565b60006134e58383614081565b905092915050565b6134f681614ab0565b82525050565b61350581614ab0565b82525050565b6000613516826148f5565b613520818561493b565b935061352b836148d5565b8060005b8381101561355c57815161354388826134c1565b975061354e83614921565b92505060018101905061352f565b5085935050505092915050565b600061357482614900565b61357e818561494c565b935083602082028501613590856148e5565b8060005b858110156135cc57848403895281516135ad85826134d9565b94506135b88361492e565b925060208a01995050600181019050613594565b50829750879550505050505092915050565b6135e781614ac2565b82525050565b60006135f88261490b565b613602818561495d565b9350613612818560208601614b33565b61361b81614cce565b840191505092915050565b600061363182614916565b61363b818561496e565b935061364b818560208601614b33565b61365481614cce565b840191505092915050565b600061366a82614916565b613674818561497f565b9350613684818560208601614b33565b61368d81614cce565b840191505092915050565b60006136a382614916565b6136ad8185614990565b93506136bd818560208601614b33565b80840191505092915050565b60006136d6600b83614990565b91507f202d2d204e465420233a200000000000000000000000000000000000000000006000830152600b82019050919050565b600061371660328361497f565b91507f4572726f723a20636f6e747261637420776173206f6e6c792076616c6964207560008301527f6e74696c204465632032352c20323032312e00000000000000000000000000006020830152604082019050919050565b600061377c60328361497f565b91507f4552433732313a207472616e7366657220746f206e6f6e20455243373231526560008301527f63656976657220696d706c656d656e74657200000000000000000000000000006020830152604082019050919050565b60006137e2605f83614990565b91507f222c20226465736372697074696f6e223a20225468697320697320616e204e4660008301527f542074686174206c6574732070656f706c6520706c617920696e20746865206760208301527f616d652053616e7461576172732067616d65222c2022696d616765223a2022006040830152605f82019050919050565b600061386e601c8361497f565b91507f4552433732313a20746f6b656e20616c7265616479206d696e746564000000006000830152602082019050919050565b60006138ae600e83614990565b91507f2c20226d61785f76616c7565223a0000000000000000000000000000000000006000830152600e82019050919050565b60006138ee60248361497f565b91507f4552433732313a207472616e7366657220746f20746865207a65726f2061646460008301527f72657373000000000000000000000000000000000000000000000000000000006020830152604082019050919050565b600061395460198361497f565b91507f4552433732313a20617070726f766520746f2063616c6c6572000000000000006000830152602082019050919050565b600061399460288361497f565b91507f4572726f723a20746172676574206d75737420626520616c69766520746f206260008301527f65206865616c65640000000000000000000000000000000000000000000000006020830152604082019050919050565b60006139fa602c8361497f565b91507f4552433732313a206f70657261746f7220717565727920666f72206e6f6e657860008301527f697374656e7420746f6b656e00000000000000000000000000000000000000006020830152604082019050919050565b6000613a60602d83614990565b91507f7d2c207b202274726169745f74797065223a20224865616c696e6720506f776560008301527f72222c202276616c7565223a20000000000000000000000000000000000000006020830152602d82019050919050565b6000613ac6602f8361497f565b91507f4572726f723a20636861726163746572206d757374206861766520485020746f60008301527f2061747461636b207461726765742e00000000000000000000000000000000006020830152604082019050919050565b6000613b2c60398361497f565b91507f4572726f723a20636861726163746572206d7573742068617665206d6f72652060008301527f7468616e203020485020746f206865616c207461726765742e000000000000006020830152604082019050919050565b6000613b9260388361497f565b91507f4552433732313a20617070726f76652063616c6c6572206973206e6f74206f7760008301527f6e6572206e6f7220617070726f76656420666f7220616c6c00000000000000006020830152604082019050919050565b6000613bf8602a8361497f565b91507f4552433732313a2062616c616e636520717565727920666f7220746865207a6560008301527f726f2061646472657373000000000000000000000000000000000000000000006020830152604082019050919050565b6000613c5e60298361497f565b91507f4552433732313a206f776e657220717565727920666f72206e6f6e657869737460008301527f656e7420746f6b656e00000000000000000000000000000000000000000000006020830152604082019050919050565b6000613cc4602a8361497f565b91507f4572726f723a20746172676574206d757374206861766520485020746f20626560008301527f2061747461636b65642e000000000000000000000000000000000000000000006020830152604082019050919050565b6000613d2a600483614990565b91507f7d205d7d000000000000000000000000000000000000000000000000000000006000830152600482019050919050565b6000613d6a60208361497f565b91507f4552433732313a206d696e7420746f20746865207a65726f20616464726573736000830152602082019050919050565b6000613daa602c8361497f565b91507f4552433732313a20617070726f76656420717565727920666f72206e6f6e657860008301527f697374656e7420746f6b656e00000000000000000000000000000000000000006020830152604082019050919050565b6000613e1060298361497f565b91507f4552433732313a207472616e73666572206f6620746f6b656e2074686174206960008301527f73206e6f74206f776e00000000000000000000000000000000000000000000006020830152604082019050919050565b6000613e76600a83614990565b91507f7b226e616d65223a2022000000000000000000000000000000000000000000006000830152600a82019050919050565b6000613eb660218361497f565b91507f4552433732313a20617070726f76616c20746f2063757272656e74206f776e6560008301527f72000000000000000000000000000000000000000000000000000000000000006020830152604082019050919050565b6000613f1c601d83614990565b91507f646174613a6170706c69636174696f6e2f6a736f6e3b6261736536342c0000006000830152601d82019050919050565b6000613f5c60318361497f565b91507f4552433732313a207472616e736665722063616c6c6572206973206e6f74206f60008301527f776e6572206e6f7220617070726f7665640000000000000000000000000000006020830152604082019050919050565b6000613fc2603d83614990565b91507f222c202261747472696275746573223a205b207b202274726169745f7479706560008301527f223a20224865616c746820506f696e7473222c202276616c7565223a200000006020830152603d82019050919050565b6000614028602d83614990565b91507f7d2c207b202274726169745f74797065223a202241747461636b2044616d616760008301527f65222c202276616c7565223a20000000000000000000000000000000000000006020830152602d82019050919050565b600060e08301600083015161409960008601826141c7565b50602083015184820360208601526140b18282613626565b915050604083015184820360408601526140cb8282613626565b91505060608301516140e060608601826141c7565b5060808301516140f360808601826141c7565b5060a083015161410660a08601826141c7565b5060c083015161411960c08601826141c7565b508091505092915050565b600060e08301600083015161413c60008601826141c7565b50602083015184820360208601526141548282613626565b9150506040830151848203604086015261416e8282613626565b915050606083015161418360608601826141c7565b50608083015161419660808601826141c7565b5060a08301516141a960a08601826141c7565b5060c08301516141bc60c08601826141c7565b508091505092915050565b6141d081614b1a565b82525050565b6141df81614b1a565b82525050565b60006141f082613e69565b91506141fc828a613698565b9150614207826136c9565b91506142138289613698565b915061421e826137d5565b915061422a8288613698565b915061423582613fb5565b91506142418287613698565b915061424c826138a1565b91506142588286613698565b91506142638261401b565b915061426f8285613698565b915061427a82613a53565b91506142868284613698565b915061429182613d1d565b915081905098975050505050505050565b60006142ad82613f0f565b91506142b98284613698565b915081905092915050565b60006020820190506142d960008301846134fc565b92915050565b60006080820190506142f460008301876134fc565b61430160208301866134fc565b61430e60408301856141d6565b818103606083015261432081846135ed565b905095945050505050565b600060608201905061434060008301866134fc565b61434d60208301856141d6565b61435a60408301846141d6565b949350505050565b6000602082019050818103600083015261437c818461350b565b905092915050565b6000602082019050818103600083015261439e8184613569565b905092915050565b60006020820190506143bb60008301846135de565b92915050565b600060208201905081810360008301526143db818461365f565b905092915050565b600060808201905081810360008301526143fd818761365f565b90508181036020830152614411818661365f565b905061442060408301856141d6565b8181036060830152614432818461365f565b905095945050505050565b60006080820190508181036000830152614457818761365f565b9050818103602083015261446b818661365f565b905061447a60408301856141d6565b61448760608301846141d6565b95945050505050565b600060408201905081810360008301526144aa818561365f565b90506144b960208301846141d6565b9392505050565b600060808201905081810360008301526144da818761365f565b90506144e960208301866141d6565b81810360408301526144fb818561365f565b905061450a60608301846141d6565b95945050505050565b6000606082019050818103600083015261452d818661365f565b905061453c60208301856141d6565b61454960408301846141d6565b949350505050565b6000602082019050818103600083015261456a81613709565b9050919050565b6000602082019050818103600083015261458a8161376f565b9050919050565b600060208201905081810360008301526145aa81613861565b9050919050565b600060208201905081810360008301526145ca816138e1565b9050919050565b600060208201905081810360008301526145ea81613947565b9050919050565b6000602082019050818103600083015261460a81613987565b9050919050565b6000602082019050818103600083015261462a816139ed565b9050919050565b6000602082019050818103600083015261464a81613ab9565b9050919050565b6000602082019050818103600083015261466a81613b1f565b9050919050565b6000602082019050818103600083015261468a81613b85565b9050919050565b600060208201905081810360008301526146aa81613beb565b9050919050565b600060208201905081810360008301526146ca81613c51565b9050919050565b600060208201905081810360008301526146ea81613cb7565b9050919050565b6000602082019050818103600083015261470a81613d5d565b9050919050565b6000602082019050818103600083015261472a81613d9d565b9050919050565b6000602082019050818103600083015261474a81613e03565b9050919050565b6000602082019050818103600083015261476a81613ea9565b9050919050565b6000602082019050818103600083015261478a81613f4f565b9050919050565b600060208201905081810360008301526147ab8184614124565b905092915050565b60006020820190506147c860008301846141d6565b92915050565b600060e0820190506147e3600083018a6141d6565b81810360208301526147f5818961365f565b90508181036040830152614809818861365f565b905061481860608301876141d6565b61482560808301866141d6565b61483260a08301856141d6565b61483f60c08301846141d6565b98975050505050505050565b600060408201905061486060008301856141d6565b61486d60208301846141d6565b9392505050565b6000604051905081810181811067ffffffffffffffff8211171561489b5761489a614c9f565b5b8060405250919050565b600067ffffffffffffffff8211156148c0576148bf614c9f565b5b601f19601f8301169050602081019050919050565b6000819050602082019050919050565b6000819050602082019050919050565b600081519050919050565b600081519050919050565b600081519050919050565b600081519050919050565b6000602082019050919050565b6000602082019050919050565b600082825260208201905092915050565b600082825260208201905092915050565b600082825260208201905092915050565b600082825260208201905092915050565b600082825260208201905092915050565b600081905092915050565b60006149a682614b1a565b91506149b183614b1a565b9250827fffffffffffffffffffffffffffffffffffffffffffffffffffffffffffffffff038211156149e6576149e5614c12565b5b828201905092915050565b60006149fc82614b1a565b9150614a0783614b1a565b925082614a1757614a16614c41565b5b828204905092915050565b6000614a2d82614b1a565b9150614a3883614b1a565b9250817fffffffffffffffffffffffffffffffffffffffffffffffffffffffffffffffff0483118215151615614a7157614a70614c12565b5b828202905092915050565b6000614a8782614b1a565b9150614a9283614b1a565b925082821015614aa557614aa4614c12565b5b828203905092915050565b6000614abb82614afa565b9050919050565b60008115159050919050565b60007fffffffff0000000000000000000000000000000000000000000000000000000082169050919050565b600073ffffffffffffffffffffffffffffffffffffffff82169050919050565b6000819050919050565b82818337600083830152505050565b60005b83811015614b51578082015181840152602081019050614b36565b83811115614b60576000848401525b50505050565b60006002820490506001821680614b7e57607f821691505b60208210811415614b9257614b91614c70565b5b50919050565b6000614ba382614b1a565b91507fffffffffffffffffffffffffffffffffffffffffffffffffffffffffffffffff821415614bd657614bd5614c12565b5b600182019050919050565b6000614bec82614b1a565b9150614bf783614b1a565b925082614c0757614c06614c41565b5b828206905092915050565b7f4e487b7100000000000000000000000000000000000000000000000000000000600052601160045260246000fd5b7f4e487b7100000000000000000000000000000000000000000000000000000000600052601260045260246000fd5b7f4e487b7100000000000000000000000000000000000000000000000000000000600052602260045260246000fd5b7f4e487b7100000000000000000000000000000000000000000000000000000000600052604160045260246000fd5b6000601f19601f8301169050919050565b614ce881614ab0565b8114614cf357600080fd5b50565b614cff81614ac2565b8114614d0a57600080fd5b50565b614d1681614ace565b8114614d2157600080fd5b50565b614d2d81614b1a565b8114614d3857600080fd5b5056fe506c617965722061747461636b6564207461726765742e204e6577207461726765742068703a2025734142434445464748494a4b4c4d4e4f505152535455565758595a6162636465666768696a6b6c6d6e6f707172737475767778797a303132333435363738392b2f0a506c6179657220772f206368617261637465722025732061626f757420746f2061747461636b2e2048617320257320485020616e64202573204865616c20506f7765724d696e746564204e465420772f20746f6b656e496420257320616e6420636861726163746572496e6465782025730a506c6179657220772f206368617261637465722025732061626f757420746f2061747461636b2e2048617320257320485020616e64202573204144a264697066735822122055116e3afb6a08756d417e15404ecf57b8e89386fa91d33fe697a4a3f727d4e564736f6c63430008000033446f6e6520696e697469616c697a696e6720257320772f2048502025732c20696d67202573",
  "linkReferences": {},
  "deployedLinkReferences": {}
}